:100000000C94E9000C9411010C9411010C94110151
:100010000C9411010C9411010C9411010C94110118
:100020000C9411010C9411010C94F5120C94110113
:100030000C9411010C94A7120C9411010C94110151
:100040000C94BA030C9411010C9423050C94FD0438
:100050000C9411010C9411010C9411010C941101D8
:100060000C94AD0C0C941101537461727420737074
:1000700065656C2064696572656E67656C75696439
:1000800000696E697469616C697A6174696F6E2068
:1000900053442063617264206661696C6564210069
:1000A000696E697469616C697A6174696F6E2053F5
:1000B00044206361726420646F6E652E00496E692E
:1000C0007469616C697A696E672053442063617258
:1000D000642E2E2E005374617274656420737065F3
:1000E000656C20776565746A65206E756D6D6572E7
:1000F0002000446972656374206469657267656C89
:100100007569642077616E7420776565746A65200F
:100110006E6965742061616E77657A6967007765DD
:1001200065746A6520656E2064696572656E6765D1
:100130006C756964206E6965742061616E77657A9B
:1001400069672E00616C726561647920706C6179F9
:10015000696E67004E69657420696E697465640034
:100160004261636B20746F2049444C4500000000DD
:1001700000240027002A0000000000250028002B92
:100180000004040404040404040202020202020340
:10019000030303030301020408102040800102044A
:1001A00008102001020408102000000008000201CD
:1001B000000003040700000000000000007C3C3E3B
:1001C0005E2B3D3F2F5B5D3B2C2A225C0000DC1B3D
:1001D000DB1B11241FBECFEFD8E0DEBFCDBF25E073
:1001E000AEE9B1E001C01D92A13FB207E1F711E015
:1001F000A0E0B1E0E8E7FEE302C005900D92AE3961
:10020000B107D9F710E0C8EED0E004C02197FE0195
:100210000E94F61CC73ED107C9F70E9434180C94FF
:100220002F1F0C9400004091FA01262F30E0240F7C
:10023000311D21323105DCF42091FD012430C9F457
:10024000FC0180E090E0861758F43091FA0121918A
:10025000DC01A852BE4FA30FB11D2C930196F3CF22
:100260008091FA01680F6093FA0180E0089581E0BF
:10027000089582E00895E091D601F091D70130977A
:1002800029F01092D5011092D40109940895CF93CA
:10029000DF93AC01E091D201F091D3013097F1F0FE
:1002A0009091D1018091D0019817C0F090E0292F52
:1002B00030E02617370754F4D901A055BE4FEA01A4
:1002C000C20FD31F88818C939F5FF1CF1092D10111
:1002D0006093D001CB01DF91CF910994DF91CF9151
:1002E00008950895E091D1018091D001E81730F48C
:1002F000F0E0E055FE4F808190E008958FEF9FEF92
:1003000008959091D1018091D001981750F4E92F70
:10031000F0E0E055FE4F208130E09F5F9093D101E7
:1003200002C02FEF3FEFC90108958091D00190E006
:100330002091D101821B91090895CF93DF9300D0C2
:10034000CDB7DEB7CB01642F49835A830E941301D6
:100350004981842F5A81952F0F900F90DF91CF9173
:100360000895CF93DF931F92CDB7DEB7698361E025
:10037000CE0101960E94130181E090E00F90DF9181
:10038000CF910895CF92DF92EF92FF920F931F9338
:10039000CF93DF936C017A018B01C0E0D0E0CE15E2
:1003A000DF0589F0D8016D918D01D601ED91FC91A9
:1003B0000190F081E02DC6010995892B11F47E0191
:1003C00002C02196ECCFC701DF91CF911F910F9111
:1003D000FF90EF90DF90CF900895089580E090E037
:1003E0000895FC01538D448D252F30E0842F90E03B
:1003F000821B930B541710F0CF9608950197089520
:10040000FC01918D828D981761F0828DDF01A80F1C
:10041000B11D5D968C91928D9F5F9F73928F90E03E
:1004200008958FEF9FEF0895FC01918D828D9817AD
:1004300031F0828DE80FF11D858D90E008958FEFEA
:100440009FEF0895FC01918D228D892F90E0805CB3
:100450009F4F821B91098F739927089580E595E03E
:100460000E94220221E0892B09F420E0822F0895C6
:10047000FC01848DDF01A80FB11DA35ABF4F2C9141
:10048000848D90E001968F739927848FA689B78910
:100490002C93A089B1898C9180648C93938D848DE9
:1004A000981306C00288F389E02D80818F7D8083B8
:1004B0000895EF92FF920F931F93CF93DF93EC0178
:1004C00081E0888F9B8D8C8D981305C0E889F98910
:1004D000808185FD24C0F62E0B8D10E00F5F1F4F2D
:1004E0000F731127E02E8C8DE8120CC00FB607FC9D
:1004F000FACFE889F989808185FFF5CFCE010E9486
:100500003802F1CF8B8DFE01E80FF11DE35AFF4F4A
:10051000F0820B8FEA89FB898081806207C0EE89B7
:10052000FF896083E889F98980818064808381E024
:1005300090E0DF91CF911F910F91FF90EF90089580
:10054000CF93DF93EC01888D8823C9F0EA89FB897A
:10055000808185FD05C0A889B9898C9186FD0FC071
:100560000FB607FCF5CF808185FFF2CFA889B98946
:100570008C9185FFEDCFCE010E943802E7CFDF914D
:10058000CF91089580E090E0892B29F00E942E02FF
:1005900081110C94000008958FE691E00E94D91516
:1005A0008EE791E00E94D9159091D0018091D10100
:1005B000981729F084E495E00E948101F5CF81E04D
:1005C0008093A20108950E94F31E85ED8093BC00E4
:1005D0008091BC0084FDFCCF1092FD01089590E055
:1005E000FC01E755FE4F3491FC01EB56FE4F249180
:1005F000FC01EF57FE4FE491EE2309F43BC0332397
:1006000039F1333091F038F43130A9F0323001F55E
:1006100084B58F7D12C0373091F03830A1F034307E
:10062000B9F4809180008F7D03C0809180008F7726
:10063000809380000DC084B58F7784BD09C0809100
:10064000B0008F7703C08091B0008F7D8093B000A1
:10065000F0E0EE0FFF1FE958FE4FA591B4918FB760
:10066000F894EC91611103C020952E2301C02E2B2C
:100670002C938FBF0895CF93DF93EC01898188235A
:1006800031F060E088810E94EF02198206C061E0CB
:1006900088810E94EF0281E08983DF91CF910895E4
:1006A0000F931F93CF93DF93EC0188E690E00E94B5
:1006B0000C160E811F8161E0F80180810E94EF021B
:1006C00081E0F80181836C817D81888199810E941C
:1006D000980F81E090E09A878987DF91CF911F91F1
:1006E0000F910895CF93DF9390E0FC01EB56FE4FFE
:1006F0002491FC01EF57FE4F8491882361F190E033
:10070000880F991FFC01E359FE4FC591D491FC015C
:10071000E958FE4FA591B491611109C09FB7F894B3
:100720008881209582238883EC912E230BC0623030
:1007300061F49FB7F8943881822F80958323888352
:10074000EC912E2B2C939FBF06C08FB7F894E881B5
:100750002E2B28838FBFDF91CF9108952FB7F89468
:100760006091AC017091AD018091AE019091AF01AB
:100770002FBF08951F920F920FB60F9211242F933F
:100780003F938F939F93AF93BF938091AC019091D0
:10079000AD01A091AE01B091AF013091AB0123E06A
:1007A000230F2D3720F40196A11DB11D05C026E8A9
:1007B000230F0296A11DB11D2093AB018093AC01C4
:1007C0009093AD01A093AE01B093AF018091A701CA
:1007D0009091A801A091A901B091AA010196A11D33
:1007E000B11D8093A7019093A801A093A901B09394
:1007F000AA01BF91AF919F918F913F912F910F903F
:100800000FBE0F901F9018950F931F93CF93DF93F8
:10081000EC0188819981009729F02A813B81261774
:10082000370788F48B016F5F7F4F0E94291E009766
:1008300061F0998388831B830A832C813D81232B5C
:1008400011F4FC01108281E001C080E0DF91CF91C2
:100850001F910F910895CF92DF92EF92FF920F9325
:100860001F93CF93DF93CDB7DEB727970FB6F894DA
:10087000DEBF0FBECDBF8C01CB014AE09E012F5FD2
:100880003F4F6901B9010E943A1CF6010190002016
:10089000E9F73197EC19FD09D8011496ED90FC9019
:1008A00015973097B9F0EE0EFF1EB701C8010E94F0
:1008B0000404882381F0F8012081318184819581AD
:1008C000B601820F931F0E94191FD8011596FC9242
:1008D000EE92149781E027960FB6F894DEBF0FBE14
:1008E000CDBFDF91CF911F910F91FF90EF90DF90DF
:1008F000CF900895EF92FF920F931F93CF93DF93C2
:10090000EC017B018A01BA010E940404288139812B
:1009100081110DC02115310519F0C9010E94911DE9
:10092000198218821D821C821B821A8206C01D83B6
:100930000C83B701C9010E94191FCE01DF91CF912D
:100940001F910F91FF90EF900895EF92FF920F93F8
:100950001F93CF93DF9300D000D000D0CDB7DEB788
:100960008C01EDB6FEB61A8219821C821B821E8291
:100970001D8240E050E060E871E0CE0101960E94E7
:100980007A04F80162817381CE0101960E942B04E2
:10099000CE0101960E9487124D815E814F5F5F4FAD
:1009A0008DB79EB7841B950B0FB6F8949EBF0FBEF4
:1009B0008DBF0DB71EB70F5F1F4FB801CE01019657
:1009C0000E945E12C8010E94E10E182F89819A814F
:1009D0000E94911D812F0FB6F894FEBE0FBEEDBE92
:1009E00026960FB6F894DEBF0FBECDBFDF91CF9134
:1009F0001F910F91FF90EF9008951F920F920FB6E5
:100A00000F9211242F933F934F935F936F937F9394
:100A10008F939F93AF93BF93EF93FF9380E595E000
:100A20000E943802FF91EF91BF91AF919F918F91FA
:100A30007F916F915F914F913F912F910F900FBEDA
:100A40000F901F9018951F920F920FB60F921124BE
:100A50002F938F939F93EF93FF93E0916005F09115
:100A600061058081E0916605F091670582FD12C005
:100A70009081809169058F5F8F7320916A0582173D
:100A800051F0E0916905F0E0E05BFA4F958F8093BB
:100A9000690501C08081FF91EF919F918F912F9106
:100AA0000F900FBE0F901F901895CF93DF93EC011E
:100AB0008D818823A1F18C8187FF2DC06E857F8574
:100AC0008889998941E00E94AD13882341F1EA8920
:100AD00080E2E89FF0011124DF01A352BD4F10977F
:100AE000F1F08D81823050F44B895C896D897E896B
:100AF0005C964D935D936D937C935F978F89988DF2
:100B0000A98DBA8DE352FD4F938F828FB58BA48B45
:100B10008C818F778C83DF91CF910C94721380E05E
:100B2000DF91CF9108958F929F92AF92BF92CF9213
:100B3000DF92EF92FF920F931F93CF93DF93EC011D
:100B40008D81811102C080E077C00B891C892D89BD
:100B50003E890417150726073707A8F36A017B01AA
:100B6000823029F4CA86DB86EC86FD860DC0C1146E
:100B7000D104E104F10451F41E821F821886198603
:100B80001A861B861C861D8681E056C08A849B843B
:100B9000AC84BD84EB8DFC8D258530E0275F3F4F15
:100BA000B501A4014150510961097109022E04C027
:100BB00076956795579547950A94D2F7D701C60160
:100BC0000197A109B10904C0B695A7959795879596
:100BD0002A95D2F784179507A607B70720F089282A
:100BE0008A288B2849F44F89588D698D7A8D4E83D8
:100BF0005F836887798704C0841B950BA60BB70BAE
:100C00004C015D018E010A5F1F4F81149104A10404
:100C1000B10409F4A7CF4E815F8168857985980179
:100C20008B8D9C8D0E94961491E0891A9108A108E1
:100C3000B1088111EACF87CFDF91CF911F910F913A
:100C4000FF90EF90DF90CF90BF90AF909F908F90EC
:100C50000895CF93DF93EC010E945505882311F08E
:100C60001D8281E0DF91CF9108951F93CF93DF9391
:100C7000CDB7DEB76D970FB6F894DEBF0FBECDBF10
:100C8000AB011C821B8225E231E03A8329831E825C
:100C9000BC01CE0101960E94491711E0811102C0EA
:100CA00010E004C0CE0101960E942906812F6D96A6
:100CB0000FB6F894DEBF0FBECDBFDF91CF911F916D
:100CC00008953F924F925F926F927F928F929F9280
:100CD000AF92BF92CF92DF92EF92FF920F931F934A
:100CE000CF93DF93CDB7DEB72C970FB6F894DEBF66
:100CF0000FBECDBF5C01DC015B968D909C905C9734
:100D00001696CD90DD90ED90FC901997C114D1040A
:100D1000E104F10439F0BFEFCB1ADB0AEB0AFB0A5E
:100D2000312C07C0F401C080D180E280F3803324ED
:100D30003394F40181859285A385B4859C01AD012E
:100D40002F5F3F4F4F4F5F4F29873A874B875C8715
:100D5000260137011D821E821F821886F4018185BB
:100D60009285A385B4852D813E814F8158852817B2
:100D700039074A075B0708F063C089859A85AB8508
:100D8000BC858C159D05AE05BF0550F482E0C82ECC
:100D9000D12CE12CF12C92E0492E512C612C712C9C
:100DA0009E012F5F3F4FB701A601C4010E94961418
:100DB000882309F445C089819A81AB81BC81892B44
:100DC0008A2B8B2B41F0260137019FEF491A590AD4
:100DD000690A790A05C0C414D504E604F70491F041
:100DE0002D813E814F8158852F5F3F4F4F4F5F4F81
:100DF0002D833E834F8358873FEFC31AD30AE30AFC
:100E0000F30AACCF0FEF1FEF2FEF3FE0B301A201CA
:100E1000C4010E94F613882399F0D50116964D91CE
:100E20005D916D917C911997411551056105710591
:100E300049F093018201C4010E94F613811102C09E
:100E400080E02AC0D50116964D925D926D927C92FB
:100E50001997332051F0D301C2010196A11DB11D94
:100E6000F40180839183A283B383F5018789908DF8
:100E7000A18DB28D892B8A2B8B2B69F4D5015796C6
:100E80004D925D926D927C925A9714968C91149724
:100E9000806814968C9381E02C960FB6F894DEBF90
:100EA0000FBECDBFDF91CF911F910F91FF90EF90BB
:100EB000DF90CF90BF90AF909F908F907F906F907A
:100EC0005F904F903F90089561E0FC0184810C9405
:100ED000EF02809109028F3F39F48EBD00000DB4FE
:100EE00007FEFDCF8EB50895F894E0910702F091CA
:100EF0000802908180910602892B808328E080E09F
:100F0000E0910402F0910502308190910302392BA7
:100F10003083880FA0910102B09102024C91309170
:100F20000002342309F081603081909593239083EF
:100F300000000000215021F7789408950F931F932B
:100F4000CF93DF93EB010E94AE038B010E946907F0
:100F50008F3F49F00E94AE03601B710B6C177D0739
:100F6000A8F380E001C081E0DF91CF911F910F9144
:100F70000895CF93DF93EC018E81882389F08F81D0
:100F800098859C012F5F3F4F38872F838230924096
:100F900018F40E946907F3CFCE010E9464071E82F5
:100FA000DF91CF910895909109029F3F39F48EBD52
:100FB00000000DB407FEFDCF8EB50895F89438E01B
:100FC000E0910402F0910502908120910302422FEA
:100FD000409594239083A0910702B09108029091CC
:100FE00006024C9187FF02C0942B02C09095942377
:100FF0009C939081292B2083880F315009F70000A2
:10100000000000000000E0910402F09105029081D0
:101010008091030280958923808378940895CF92EC
:10102000DF92FF920F931F93CF93DF9300D000D0F6
:10103000CDB7DEB76C01F62E29833A834B835C83F0
:101040000E94B90760E0F60184810E94EF026CE221
:1010500071E0C6010E949E078F2D80640E94D30715
:1010600008E110E05C814B813A812981DA01C901F4
:10107000002E04C0B695A795979587950A94D2F748
:1010800029833A834B835C830E94D307085011095C
:1010900029813A814B815C81083FFFEF1F0731F7BF
:1010A000FF2029F088E0F81204C087E803C085E932
:1010B00001C08FEF0E94D30710E00E946907F6017C
:1010C000828787FF04C01F3F11F01F5FF6CF0F908C
:1010D0000F900F900F90DF91CF911F910F91FF9084
:1010E000DF90CF900895AF92BF92CF92DF92EF92B0
:1010F000FF920F931F93CF93DF93EC016901C80117
:10110000820F931F8130924008F070C08E81882337
:1011100071F088819981AA81BB81481759076A07B4
:101120007B0729F48F819885C816D906B0F54883C6
:1011300059836A837B838B85833039F089E0440F40
:10114000551F661F771F8A95D1F79A01AB0161E1A0
:10115000CE010E940F08882319F083E08D8346C0DA
:101160000E94AE035B010E9469078A878F3F49F4A2
:101170000E94AE036A197B096D327140A0F38FE0C3
:1011800003C08E3F31F08DE08D83CE010E94640755
:101190002DC018861F8281E08E838F8198858C15E3
:1011A0009D0540F40E9469078F8198850196988774
:1011B0008F83F3CF6701E00EF11ECE14DF0431F010
:1011C0000E946907F60181936F01F7CF8F8198859F
:1011D000080F191F18870F838985882319F00115B7
:1011E000124048F0CE010E94B90705C0CE010E940E
:1011F000640780E001C081E0DF91CF911F910F91E2
:10120000FF90EF90DF90CF90BF90AF9008952F9216
:101210003F924F925F926F927F928F929F92AF9286
:10122000BF92CF92DF92EF92FF920F931F93CF93D3
:10123000DF93EC016B014A018D81811103C08FEFB7
:101240009FEFD7C08C8180FFFACF4B885C886D8878
:101250007E884A855B856C857D85C401A0E0B0E011
:1012600093018201041B150B260B370B0817190776
:101270002A073B0718F44201841A950A54011E01FB
:1012800026E0220E311CA114B10409F47EC04A8567
:101290005B856C857D852A0181E05822ED818A017C
:1012A0009B0189E036952795179507958A95D1F783
:1012B0008B8D9C8DE23061F4FC01828D938DA48D29
:1012C000B58DBC01CD01600F711F821F931F3FC000
:1012D000FC0174807A94702241145104C9F4711095
:1012E00017C0452B462B472B49F48F89988DA98D24
:1012F000BA8D8E839F83A887B9870AC04E815F818C
:101300006885798591010E949614882309F497CF06
:10131000EB8DFC8D8E819F81A885B9850297A109EF
:10132000B109058404C0880F991FAA1FBB1F0A9426
:10133000D2F74685578560897189840F951FA61F4E
:10134000B71FBC01CD01670D711D811D911D20E0EE
:1013500032E02419350935012A153B0508F4390115
:101360002C8126FD04C06114F2E07F0681F4009117
:1013700003011091040120910501309106016017CD
:10138000710782079307B1F402C0C40132C040E084
:101390000E94AD13882309F452CFF201E352FD4FAE
:1013A000D601CF01860D971DE817F90789F0219125
:1013B0002D93FACF760183019201AB01BC0180919C
:1013C000DD049091DE040E947308882309F437CF6E
:1013D000C60CD71C8A859B85AC85BD85860D971D5F
:1013E000A11DB11D8A879B87AC87BD87A618B7084A
:1013F0004ACFDF91CF911F910F91FF90EF90DF9037
:10140000CF90BF90AF909F908F907F906F905F90A4
:101410004F903F902F900895CF93DF931F92CDB7B9
:10142000DEB741E050E0BE016F5F7F4F0E940709C9
:10143000019719F4898190E002C08FEF9FEF0F9020
:10144000DF91CF910895CF92DF92EF92FF920F93A9
:101450001F93CF93DF93EC0189014115510561057D
:10146000710511F482E167C08B85833039F0E9E0C2
:10147000440F551F661F771FEA95D1F79A01AB01FC
:1014800068E1CE010E940F08882311F084E053C068
:101490008C8598013E5F7901882329F1F801C12CE0
:1014A000D12C419150E0BA016D25AB0194E05595E6
:1014B00047959A95E1F746275727DC2CCC24C4267C
:1014C000D526CA01982F88279295907FC826D926BD
:1014D00065E0440F551F6A95E1F7C426D526EE1541
:1014E000FF05F9F603C0CC24CA94DC2C8EEF0E94D1
:1014F000D307F80181918F010E94D3070E151F05B4
:10150000C1F78D2D0E94D3078C2D0E94D3070E9416
:1015100069078A878F71853031F081E18D83CE0133
:101520000E94640709C068E572E0CE010E949E0730
:10153000811107C085E18D83CE010E94640780E0A0
:1015400013C020E030E0A9016DE0CE010E940F0839
:10155000811104C00E946907882311F084E1EBCF58
:10156000CE010E94640781E0DF91CF911F910F911E
:10157000FF90EF90DF90CF9008952F923F924F927F
:101580005F926F927F928F929F92AF92BF92CF9213
:10159000DF92EF92FF920F931F93CF93DF9300D0D0
:1015A00000D0CDB7DEB78C015B011A01DC011596C6
:1015B0008C9115978130C9F414968C9181FF15C0D8
:1015C00082FF1BC0F8014389548965897689828529
:1015D0009385A485B58584179507A607B70769F095
:1015E000C8010E949305811108C081E090E0F801D4
:1015F0009383828380E090E039C1610183C0D80188
:101600005B968D919C915C97FC01248121502A016D
:101610003B0139E076946794579447943A95D1F713
:10162000722E74207A01F1E0FF22772009F476C04F
:1016300080E092E08E199F0946018C159D0508F403
:101640004C01D8015B962D913C915C9716968D913B
:101650009D910D90BC91A02D0297A109B109F901AE
:10166000058404C0880F991FAA1FBB1F0A94D2F7D4
:101670004685578560897189840F951FA61FB71FFE
:101680009C01AD01270D311D411D511D29013A015C
:10169000811432E0930609F088C080910301909193
:1016A0000401A0910501B091060184159505A605D8
:1016B000B70559F48FEF9FEFDC01809303019093FE
:1016C0000401A0930501B09306019501B301A201A5
:1016D0008091DD049091DE040E94230A882309F49E
:1016E00084CF9EEFB91AC818D908F801828593856E
:1016F000A485B585880D991DA11DB11D828793878D
:10170000A487B587D8011A964D915D916D917C9112
:101710001D97C114D10409F072CF87C0E114F10400
:1017200009F086CF16964D915D916D917C91199738
:10173000411551056105710559F457968D919D919B
:101740000D90BC91A02D0097A105B10541F521C0D8
:101750009E012F5F3F4F0E949614882309F44BCFC0
:1017600089819A81AB81BC81F801238D348DF90187
:101770002789203129F048EF5FEF6FEF7FE004C049
:1017800048EF5FEF60E070E084179507A607B707A2
:1017900030F0C8010E94610681114ACF26CFF801BE
:1017A00086839783A087B18743CFE114F10429F59D
:1017B000D8011A964D915D916D917C911D9753962C
:1017C0008D919D910D90BC91A02D481759076A07E6
:1017D0007B0798F00E947213882309F406CF409289
:1017E00003015092040160920501709206018091FC
:1017F000DC0281608093DC0208C041E0C301B201D9
:101800000E94AD13882309F4F0CED501F701E3520D
:10181000FD4FCF01880D991DE817F90719F02D919B
:101820002193FACFA80CB91C5ECF53968D919D9150
:101830000D90BC91A02D84179507A607B70740F41B
:10184000F801438B548B658B768B8481806884830D
:10185000D80114968C9183FD02C0C10107C0C80154
:101860000E945505882309F4C0CEF7CF0F900F9042
:101870000F900F90DF91CF911F910F91FF90EF90FC
:10188000DF90CF90BF90AF909F908F907F906F90A0
:101890005F904F903F902F9008959CB5282F237014
:1018A0009C7F922B9CBD2DB582FB992790F9822FAE
:1018B0008E7F892B8DBD0895FC01DB0112968D91E1
:1018C0009C9113979383828385E291E09183808337
:1018D00014968C911497848315968C911597858313
:1018E00016964D915D916D917C9119974683578322
:1018F000608771871A964D915D916D917C911D97CE
:1019000042875387648775871E964D915D916D91CF
:101910007C91519746875787608B718B52968C913B
:101920005297828B53964D915D916D917C91569714
:10193000438B548B658B768B57964D915D916D9152
:101940007C915A97478B508F618F728F5B968D91E8
:101950009C915C97948F838F08951F920F920FB67E
:101960000F9211242F933F934F935F936F937F9325
:101970008F939F93AF93BF93EF93FF938091B900A1
:10198000887F803609F49CC068F5883209F45BC012
:1019900090F4803109F454C038F4882309F4F6C077
:1019A000883009F44DC0F6C0883109F44CC080324B
:1019B00009F45DC0EFC0803409F468C048F4803396
:1019C00009F455C0883309F0E5C080932C02D8C0D3
:1019D000803509F44FC0883509F45DC0883409F0BA
:1019E000D9C0D6C0883909F4C7C0A8F4883709F42B
:1019F00067C038F4883609F463C0803709F460C0E2
:101A0000C9C0883809F4B8C0803909F45FC080388B
:101A100009F0C0C05BC0803B09F486C038F4803A4E
:101A200009F466C0883A09F47FC0B4C0803C09F468
:101A3000A7C0883C09F4A4C0883B09F48AC0AAC0A6
:101A400080914F0210C090914E0280914D029817E4
:101A500070F5E0914E0281E08E0F80934E02F0E02F
:101A6000E35DFD4F80818093BB0085EC86C0809351
:101A70002C028EC0E0914E0281E08E0F80934E02C8
:101A80008091BB00F0E0E35DFD4F808390914E02BA
:101A900080914D026EC0E0914E0281E08E0F8093E6
:101AA0004E028091BB00F0E0E35DFD4F80838091AA
:101AB000FF0181116DC081E08093FE0184EA61C065
:101AC00083E08093FD0110922B02CFCF80912B02F7
:101AD000803208F051C0E0912B0281E08E0F80939C
:101AE0002B028091BB00F0E0E55FFD4F8083BDCF0E
:101AF00085EC8093BC001092FD0180912B02803216
:101B000030F4E0912B02F0E0E55FFD4F1082609130
:101B10002B0270E0E091FB01F091FC018BE092E080
:101B2000099510922B0236C084E08093FD0110923B
:101B30000A021092FA01E091F801F091F901099579
:101B40008091FA01811105C081E08093FA01109221
:101B5000D801E0910A0281E08E0F80930A02F0E042
:101B6000E852FE4F80818093BB0090910A028091E1
:101B7000FA01981708F479CF85E88093BC000AC071
:101B800085EC8093BC001092FD0104C010922C02E1
:101B90000E94E502FF91EF91BF91AF919F918F91CC
:101BA0007F916F915F914F913F912F910F900FBE59
:101BB0000F901F901895E091F804F091F904309778
:101BC00029F08581882311F081E008950895DC01D2
:101BD0005996ED91FC915A973097B9F08389948981
:101BE000A589B6894285538564857585841B950BC7
:101BF000A60BB70B811520E89207A105B10538F0B7
:101C00008FEF9FE7A0E0B0E0089580E090E00895B6
:101C1000CF93DF931F92CDB7DEB76983DC01ED91DF
:101C2000FC910280F381E02D41E050E0BE016F5F46
:101C30007F4F09950F90DF91CF9108952091F8047F
:101C40003091F9042115310541F0AB01BC01C90106
:101C50000E94930591E0811101C090E0892F0895C1
:101C60008091F8049091F904009761F00E94290690
:101C70008091F8049091F9040E94911D1092F9044A
:101C80001092F8040895FC01818D928D009711F057
:101C90000C9455050895FC01818D928D009711F0EB
:101CA0000C940C0A8FEF9FEF08950F931F93CF931F
:101CB000DF93FC01818D928D0097B9F0EF010E94B6
:101CC0000C0A8C010F3F8FEF180791F0898D9A8DC8
:101CD000FC01428553856485758541505109610930
:101CE00071090E949305C80105C080E090E002C020
:101CF0008FEF9FEFDF91CF911F910F910895CF93B9
:101D0000DF93EC01898D9A8D009739F481E090E0A2
:101D10009B838A8380E090E00BC0FC0113821282D7
:101D20000E94BD0AE98DFA8D22813381232B71F740
:101D3000DF91CF910895CF93DF931F92CDB7DEB798
:101D4000698341E050E0BE016F5F7F4F0E94BD0A92
:101D50000F90DF91CF910895EF92FF920F931F9311
:101D6000CF93DF93EC017B018A011B821A8288EEFC
:101D700093E0A0E0B0E08C839D83AE83BF8383E1DA
:101D800091E0998388838DE190E00E94FC1C9A8FFA
:101D9000898F009779F02DE1F701DC0101900D9218
:101DA0002A95E1F74CE050E0B801CE010C960E9474
:101DB000201F188EDF91CF911F910F91FF90EF9010
:101DC00008958F929F92AF92BF92CF92DF92EF923F
:101DD000FF920F931F93CF93DF93CDB7DEB7C75416
:101DE000D1090FB6F894DEBF0FBECDBF5C0119A2BA
:101DF00018A285E291E09F8F8E8F1BA21C821B820E
:101E00009A8389831E8200E010E06E018EE1C80E85
:101E1000D11C85E2E82E85E0F82E88248394980171
:101E2000F501E00FF11F80818F3211F42F5F3F4FDA
:101E3000FE01FB9680E090E0D501A20FB31F4C910C
:101E40004F3249F0442339F001962F5F3F4F4193C1
:101E50008C30910589F7EBE3F0E0EC0FFD1FE80F04
:101E6000F91F1082F501E20FF31F80818F3211F408
:101E70002F5F3F4F8901F501E20FF31F99249394DF
:101E80008081811101C0912C20E030E0492D48254E
:101E9000BE01655C7F4FC7010E94350681110AC0F3
:101EA00095E2E91695E0F90619F0C7010E942906A6
:101EB00080E02AC09920C1F0AE01455C5F4FB701B8
:101EC000C6010E944917982E85E2E81685E0F806BB
:101ED000A9F0C7010E942906992051F39E2D8F2D4C
:101EE0007601C92ED82E9BCF95E2E91695E0F9062A
:101EF00019F0C7010E94290681E006C09920C1F2AD
:101F0000CE0101967C01EACFC95BDF4F0FB6F89492
:101F1000DEBF0FBECDBFDF91CF911F910F91FF901C
:101F2000EF90DF90CF90BF90AF909F908F900895EB
:101F30002F923F924F925F926F927F928F929F92D9
:101F4000AF92BF92CF92DF92EF92FF920F931F93C7
:101F5000CF93DF93CDB7DEB7C457D1090FB6F8944E
:101F6000DEBF0FBECDBF8C015B01FC01908187817C
:101F7000981709F47DC01092500280916F008E7DF9
:101F800080936F00C8010E94DB0D81110E94300E0A
:101F90008091800087FD1BC0809102018062809348
:101FA0000201109281001092800061E0F8018081AE
:101FB0000E947203F8018081863009F448C08E3295
:101FC00009F449C0853009F048C081E041C08091E2
:101FD00088009091890040E050E0F8012581368129
:101FE00042175307C8F697FD06C0BC0128173907EA
:101FF00020F4B90102C060E070E070938B00609340
:102000008A0097FD09C0F801658176819C016817F7
:10201000790720F49B0102C020E030E03093890072
:1020200020938800F80165817681625371092AE066
:1020300030E0E0918400F0918500E617F707C8F3DF
:1020400021503109B1F74F5F5F4F0197C6CF82E052
:102050008093DB0204C083E0FBCF1092DB028DB5DE
:1020600081608DBD8CB58C7F8CBDF80180818783AC
:102070001092500280916F008E7D80936F00C80196
:102080000E94DB0D81110E94300E4E01FEE18F0E89
:10209000911C65E275E0C4010E945C0C1C821B82ED
:1020A00085E291E09A8389831E823501CE010196F3
:1020B0006C0114012C016FE270E0C3010E940E1F3D
:1020C0000097E9F1F30120812F3221F4FFEF6F1A1D
:1020D0007F0AF1CF86198D3008F08CE0E82EF12CC4
:1020E000A701B301CE01885A9F4F0E94201FE8E547
:1020F000F0E0EC0FFD1FEE0DFF1D1082C6010E94E7
:102100002906AE01485A5F4FB101C6010E94491726
:1021100081110AC01EAE1DAE85E291E09CAF8BAF6F
:1021200021961FAE219717C06E0C7F1CC1010E9423
:102130002906922D832D1601C92ED82EBCCFC3019E
:102140008A199B09E5969FAF8EAFE597B101CE0145
:10215000CB960E945C0CE596EEADFFADE597AE0E1A
:10216000BF1EF5018081811109C0BE01655C7F4FF2
:10217000C2010E945C0C4BE951E03FC019A218A2B9
:1021800085E291E09F8F8E8F1BA221968FAD2197C4
:10219000811116C06C961FAE1EAE6C9788EE93E050
:1021A000A0E0B0E0A0968CAF9DAFAEAFBFAFA09760
:1021B000E3961FAE1EAEE397A5961FAEA59723C06C
:1021C0008250A501823040F465E275E0C4010E94AE
:1021D000491781110DC0DECFBE01655C7F4FC40180
:1021E0000E9449178823B1F2CE01CB960E9429069E
:1021F000B401C2010E945C0CA501B201CE01885A53
:102200009F4F0E94AC0E6C968EAD9FAD6C979093D5
:10221000E2048093E104A0968CAD9DADAEADBFAD60
:10222000A0978093E3049093E404A093E504B09313
:10223000E604A4968CAD9DADAEADBFADA4978093E2
:10224000E7049093E804A093E904B093EA048DE0D6
:10225000E8E5F0E0EC0FFD1F3C96ABEEB4E001903A
:102260000D928A95E1F7E3968EAD9FADE39790933B
:10227000F9048093F804C8010E94DB0D882309F457
:1022800003C168E070E080E090E00E941E0E87E5E8
:10229000898381E48A8386E58B8385E48C8372015C
:1022A00054E0D52ED40C8FED94E00E944B0EF70134
:1022B00021917F01022E000C330B8217930711F43A
:1022C000DE12F1CF68E170E080E090E00E941E0E27
:1022D0008FED94E00E944B0EF801948383838FED81
:1022E00094E00E944B0E20E030E0382FF80183810B
:1022F0009481282B392B348323836CE270E080E0B7
:1023000090E00E941E0E80E490E09093DA028093A9
:10231000D90281E08093500280910201982F9F772B
:1023200090930201F801238134812B3F3F4A28F02A
:1023300020EC3DE5F80134832383F80123813481C7
:1023400040E050E086FF05C060E075E38CE090E07F
:1023500004C060E07AE688E190E00E94D71C6AE061
:10236000629FC001639F900D1124F80196838583BD
:102370008FED94E00E944B0E7C018FED94E00E9463
:10238000550E20918800309189008E0D9F1D97FD7C
:10239000019695958795992740E050E028173907D1
:1023A00008F045C0B9016F5F7F4F6217730728F0CF
:1023B0009B018617970708F49C01FA01E75AFD4F25
:1023C00020834F5F5F4F4034510561F740E050E09C
:1023D000B9016F5F7F4F6217730728F09B01861763
:1023E000970708F49C01FA01E756FD4F20834F5FE1
:1023F0005F4F4034510561F710925802109200016E
:102400001092010110925702F894F801858196818B
:10241000909387008093860082EB8093800089E10F
:102420008093810081E280936F0078942DC0B90180
:10243000615071096817790728F06217730718F45B
:102440009B0101C09C01FA01E75AFD4F20834F5FB9
:102450005F4F4034510559F740E050E0B9016150F9
:1024600071096817790728F06217730718F49B0140
:1024700001C09C01FA01E756FD4F20834F5F5F4F7B
:102480004034510559F7B8CFCC58DF4F0FB6F89408
:10249000DEBF0FBECDBFDF91CF911F910F91FF9097
:1024A000EF90DF90CF90BF90AF909F908F907F90F4
:1024B0006F905F904F903F902F9008950F931F93D0
:1024C000CF93DF9341155105E9F061157105D1F006
:1024D000FC01248135812115310519F4FB0110829D
:1024E00011C0EA0121972C173D0708F4E9018B017F
:1024F000FC0160817181AE01C8010E94201FC00FE4
:10250000D11F1882DF91CF911F910F9108950F93E2
:102510001F93CF93DF93EC010C811D810C5F1F4F44
:10252000B8010E940404882369F0288139818C81D4
:102530009D8165E871E0820F931F0E94191F1D8322
:102540000C8381E0DF91CF911F910F9108951F922D
:102550000F920FB60F9211248F939F93EF93FF93D7
:102560008091020186FD2EC0E091580280915702B1
:1025700090E4E99FF0011124E80FF11DE75AFD4FA7
:10258000808190E090938B0080938A0090938900E3
:1025900080938800809157028F5F809357028091CB
:1025A00057028034C8F010925702E0915802F0E0D0
:1025B000E050FF4F81E080839091580289278093FB
:1025C00058020AC09091560281E0892780935602F2
:1025D00080915602882341F2FF91EF919F918F9154
:1025E0000F900FBE0F901F9018951F920F920FB66D
:1025F0000F9211242F933F934F935F936F937F9389
:102600008F939F93AF93BF93EF93FF93E091580203
:1026100081E0E827F0E0E050FF4F9081992309F432
:1026200050C09091580289278093550280916F0085
:102630008F7D80936F0078948FED94E00E94E70D7A
:102640002091D9023091DA0228173907E8F08091F9
:10265000020183FF07C06CE270E080E090E00E941E
:102660001E0E2AC080916F008E7D80936F00E091D6
:10267000F804F091F904309721F0858181110E94CE
:10268000300E109250021DC06091550280E4689F88
:10269000B0011124675A7D4F8091F8049091F9049C
:1026A000009721F040E450E00E940709E0915502B4
:1026B000F0E0E050FF4F108280916F0080628093C5
:1026C0006F00FF91EF91BF91AF919F918F917F919B
:1026D0006F915F914F913F912F910F900FBE0F908F
:1026E0001F9018958091DC028823A9F14091030185
:1026F0005091040160910501709106012DED32E0C9
:102700008091DD049091DE040E94230A811102C0B1
:1027100080E008954091510250915202609153021D
:1027200070915402411551056105710591F02DED2F
:1027300032E08091DD049091DE040E94230A882318
:1027400039F31092510210925202109253021092D9
:1027500054021092DC0281E008958F929F92AF9212
:10276000BF92EF92FF920F931F93CF934B015C01A7
:10277000C42F8091030190910401A0910501B091B3
:10278000060188159905AA05BB0501F10E9472137F
:10279000811102C080E020C08DEDE82E82E0F82E8D
:1027A00000E012E020E030E0B501A4018091DD04FA
:1027B0009091DE040E947308882361F380920301E4
:1027C00090920401A0920501B09206018091DC0272
:1027D000C82BC093DC0281E0CF911F910F91FF9035
:1027E000EF90BF90AF909F908F9008954F925F921F
:1027F0006F927F928F929F92AF92BF92CF92DF9211
:10280000EF92FF920F931F93CF93DF93EC016A0136
:102810007B0128013901423051056105710510F431
:1028200080E073C089859A85AB85BC850196A11D22
:10283000B11D84179507A607B70790F38B889C886E
:10284000AD88BE888F89803129F4BB27AF2D9E2D9E
:102850008D2D09C0DB01CA0147E0B695A795979574
:1028600087954A95D1F7880E991EAA1EBB1E8091A6
:10287000030190910401A0910501B0910601881611
:102880009906AA06BB0679F48F898031A1F4DD246C
:10289000EE24FF24C601880F991FFC01E352FD4F6F
:1028A0005182408219C040E0C501B4010E94AD13BD
:1028B0008111EACFB5CFE894C7F8DD24EE24FF24D8
:1028C000C601880F991F880F991FFC01E352FD4F25
:1028D00040825182628273828091DC0281608093A7
:1028E000DC028A89823080F08D819E81AF81B8853B
:1028F000880E991EAA1EBB1E80925102909252020F
:10290000A0925302B092540281E0DF91CF911F91C7
:102910000F91FF90EF90DF90CF90BF90AF909F907E
:102920008F907F906F905F904F9008958F929F92BD
:10293000AF92BF92CF92DF92EF92FF920F931F93CD
:10294000CF93DF93FC0181859285A385B4850196A1
:10295000A11DB11D84179507A607B70710F480E0E5
:102960005CC083899489A589B689C789C03129F457
:10297000852E962EA72EBB2409C04A015B01C7E015
:10298000B694A79497948794CA95D1F7E9016A0100
:102990007B018F01BC01CD01680D791D8A1D9B1D36
:1029A0008090030190900401A0900501B090060171
:1029B000681579058A059B0599F4F80187898031A6
:1029C000A9F4B701A601552766277727440F551F9D
:1029D000FA01E352FD4F80819181A0E0B0E018C080
:1029E00040E00E94AD138111E8CFB9CFB701A60135
:1029F0004F77552766277727440F551F440F551FDC
:102A0000FA01E352FD4F80819181A281B381BF70B1
:102A100088839983AA83BB8381E0DF91CF911F9143
:102A20000F91FF90EF90DF90CF90BF90AF909F906D
:102A30008F9008954F925F926F927F92AF92BF9264
:102A4000CF92DF92EF92FF920F931F93CF93DF937A
:102A500000D000D0CDB7DEB78C0149835A836B8399
:102A60007C835901C12CD12C7601412C82E0582E57
:102A7000612C712C49815A816B817C819E012F5F71
:102A80003F4FC8010E949614882351F1D301C2011F
:102A9000F801058404C0880F991FAA1FBB1F0A9460
:102AA000D2F7C80ED91EEA1EFB1E49815A816B81DE
:102AB0007C818789803129F088EF9FEFAFEFBFE0FD
:102AC00004C088EF9FEFA0E0B0E0481759076A07FD
:102AD0007B0780F2F501C082D182E282F38281E03D
:102AE0000F900F900F900F90DF91CF911F910F914A
:102AF000FF90EF90DF90CF90BF90AF907F906F905E
:102B00005F904F900895CF93DF93EC016A8B809193
:102B1000030190910401A0910501B09106018E87F7
:102B20009F87A88BB98B80E2689FF0011124E35244
:102B3000FD4F4489558960E070E0BA01552744276C
:102B40004F8B588F698F7A8F828D938DA0E0B0E084
:102B5000482B592B6A2B7B2B4F8B588F698F7A8F81
:102B60008385887151F4848D958DA68DB78D8B8B5F
:102B70009C8BAD8BBE8B81E00EC0803111F080E06C
:102B800015C09E012D5E3F4F8B8D9C8D0E941A15A6
:102B90008823A9F384E08D8381E08C831E821F82C9
:102BA000188619861A861B861C861D86DF91CF9192
:102BB0000895009769F0FC0101900020E9F7319732
:102BC000AF01481B590BBC0180E595E00C94C20194
:102BD00080E090E008950F931F93CF93DF938C01D3
:102BE000C0E0D0E0F801EC0FFD1F6491662371F0A6
:102BF000E0915005F09151050190F081E02D80E5C4
:102C000095E00995892B11F02196ECCFCE01DF914B
:102C1000CF911F910F910895CF93DF930E94EB15F1
:102C2000EC018EE791E00E94D9158C0F9D1FDF917A
:102C3000CF9108958F929F92AF92BF92CF92DF92E1
:102C4000EF92FF92CF93DF93C82F8AEF94E0909397
:102C5000DE048093DD04CC2369F1C53010F080E000
:102C60000DC140E060E070E0CB010E94AD1388230D
:102C7000B1F320E1C29FC001112483539D4FFC0199
:102C8000E254FE4F20812F7751F73C9640815181CD
:102C900062817381443651056105710500F33497F3
:102CA000C080D180E280F380C114D104E104F1043A
:102CB00021F4D5CFC12CD12C760140E0C701B6015B
:102CC0000E94AD13882359F28091E8029091E902A5
:102CD0008115924021F6A091ED02AA2309F4BFCFFD
:102CE0006091EB027091EC026115710509F4B7CFA8
:102CF0002091EA02222309F4B2CFA0931905209370
:102D00000B0580E030E0E1E0F0E0C82FAF01082ED5
:102D100002C0440F551F0A94E2F72417350741F00B
:102D2000982F8F5F983089F789E08093140597CFAB
:102D3000809314052091F3023091F402211531059E
:102D400019F040E050E008C02091010330910203E7
:102D5000409103035091040320930C0530930D051B
:102D600040930E0550930F0546015701860E971E9E
:102D7000A11CB11C80921A0590921B05A0921C0503
:102D8000B0921D05E091EE02F091EF02F093200564
:102D9000E0931F05B0E00E94641C860E971EA81EDB
:102DA000B91E8092210590922205A0922305B0922F
:102DB000240585E0EE0FFF1F8A95E1F7E150FE4FF5
:102DC000EF2FFF27E6958E0E9F1EA11CB11C80924F
:102DD000150590921605A0921705B092180520913E
:102DE000F0023091F1022115310521F0A90160E0D6
:102DF00070E008C04091FD025091FE026091FF0218
:102E000070910003D701C60188199909AA09BB0965
:102E1000840F951FA61FB71F04C0B695A795979559
:102E20008795CA95D2F78093100590931105A093CA
:102E30001205B0931305853F2FE09207A105B10558
:102E400010F48CE018C0853F9F4FA105B10510F428
:102E500080E111C08091090390910A03A0910B03B6
:102E6000B0910C038093210590932205A093230534
:102E7000B093240580E280931E0581E0DF91CF911D
:102E8000FF90EF90DF90CF90BF90AF909F908F908A
:102E90000895AF92BF92CF92DF92EF92FF920F937D
:102EA0001F93CF93DF93CDB7DEB72B970FB6F89470
:102EB000DEBF0FBECDBF7C01FC0185818111C2C088
:102EC000CE0101966C01FC0190E28BE08C0D919398
:102ED0008E13FDCFDA0120E037E09D91992339F17F
:102EE0009E3219F0EDEBF1E00AC03A3009F4AAC0C5
:102EF00028E03AE0F2CF3196891709F4A3C0849113
:102F00008111F9CF321708F49DC08FED890F8E35EE
:102F100008F098C081E0820FF601E20FF11D2FE961
:102F2000290F2A3108F490529083282FD6CF898117
:102F3000803209F487C08B01FB01838D948DF701EA
:102F4000948F838FFB01168217821086118612865A
:102F5000138614861586A12CF80182859385A48595
:102F6000B585438954896589768984179507A607AD
:102F7000B70708F067C025E0B695A79597958795A0
:102F80002A95D1F7F82FFF70BF2EF8018581823086
:102F900008F458C0C8010E940C0A97FD53C0F801FC
:102FA00082859385A485B5854F96A11DB11D828725
:102FB0009387A487B587F0E2BF9EC0011124BC01AE
:102FC00063527D4F61157105E9F1FB0120812223D8
:102FD000B9F1253EE1F04BE050E0C6010E94F81E39
:102FE000892B09F0B9CF6B2DC7012B960FB6F8943A
:102FF000DEBF0FBECDBFDF91CF911F910F91FF902C
:10300000EF90DF90CF90BF90AF900C948315A110FC
:1030100014C0F701B28A40910301509104016091FC
:1030200005017091060146875787608B718BFC0103
:10303000E352FD4F8081882329F0AA24A3948CCFEA
:10304000AA2039F380E02B960FB6F894DEBF0FBEAE
:10305000CDBFDF91CF911F910F91FF90EF90DF9047
:10306000CF90BF90AF900895CF93DF93CDB7DEB7E9
:10307000A7970FB6F894DEBF0FBECDBF789484B586
:10308000826084BD84B5816084BD85B5826085BD64
:1030900085B5816085BD80916E00816080936E00F2
:1030A00010928100809181008260809381008091E4
:1030B0008100816080938100809180008160809395
:1030C00080008091B10084608093B1008091B00055
:1030D00081608093B00080917A00846080937A0050
:1030E00080917A00826080937A0080917A0081607A
:1030F00080937A0080917A00806880937A001092A1
:10310000C100E0916005F091610572E0D72ED08298
:10311000E0915C05F0915D051082E0915E05F09113
:103120005F0580E1808310926805E0916405F0916D
:10313000650586E08083E0916205F09163058081FA
:1031400080618083E0916205F091630580818860F1
:103150008083E0916205F0916305808180688083BF
:10316000E0916205F091630580818F7D80838BE023
:1031700090E00E94FC1C8C01FC01138212821086DC
:103180001286118688E090E00E94FC1C28E0FC0179
:1031900011922A95E9F7F8019183808329E0FC01D7
:1031A000208381E891E0F8019583848388E090E0B2
:1031B0000E94FC1C7C01FC01118212821382148289
:1031C000158217821682D08261E082E00E9472032B
:1031D000F801F782E6828DEB90E00E94EB151092E9
:1031E000050510920305109200051092FF0410923D
:1031F000060584E08093FE048FEF8093A101809305
:10320000A001809309020E94AE037B0161E08091DE
:10321000FE040E9472038AEF94E00E946407DFB606
:10322000F89480919F01811127C0EBE8F1E084912F
:10323000EFE9F1E09491E82FF0E0EE0FFF1FE35982
:10324000FE4FA591B491EC91E92321F461E08AE06D
:103250000E94EF0261E08AE00E9472038CB58061F7
:103260008CBD8CB580648CBD61E08DE00E947203E2
:1032700061E08BE00E94720380919F018F5F8093D9
:103280009F01DFBE83E00E944D0C5AE0D52E8FEFE8
:103290000E94D307DA94D110FACF60E08091FE0447
:1032A0000E94EF0220E030E0A90160E08AEF94E0A4
:1032B0000E940F08D82E8093040581E0D81649F0AB
:1032C0000E94AE036E197F09613D774058F381E09B
:1032D00056C02AEA31E040E050E068E08AEF94E02E
:1032E0000E940F0882FF03C0D092050510C044E081
:1032F000D42E0E94690780930405DA94D110F9CF87
:103300008A3A11F082E03BC082E08093050580910B
:103310000505823021F0812C912C540105C0812CAF
:10332000912CA12C30E4B32E20E030E0A90167E31A
:103330008AEF94E00E940F08A501940169E28AEFE8
:1033400094E00E940F0880930405882349F00E94AE
:10335000AE036E197F09613D774030F388E00FC0FE
:1033600080910505823001F520E030E0A9016AE393
:103370008AEF94E00E940F08882341F086E0809352
:10338000FF048AEF94E00E94640723C00E9469074B
:10339000807C803C19F483E0809305050E946907D6
:1033A0000E9469070E9469078AEF94E00E946407FF
:1033B000809109028F3F19F480E00E944D0C81E05A
:1033C0000E941A16811179C180E00E941A1681119B
:1033D00074C181E890E00E940C16F801E680F78045
:1033E0008CE291E0F70197838683C7010E943B033B
:1033F0000E94AE03F70162837383848395831093E5
:10340000A4010093A30182E090E00E94FC1C7C01D7
:10341000FC011183008382E18093BA008BE391E089
:103420009093F9018093F80187E491E09093FC0177
:103430008093FB011092D1011092D0011092D5011E
:103440001092D4011092FD0181E08093FF0110924F
:10345000FE0161E082E10E94EF0261E083E10E94EF
:10346000EF029091B9009E7F9093B9009091B900BE
:103470009D7F9093B90088E48093B80085E48093A1
:10348000BC008CEC92E09093D3018093D2018AE847
:1034900091E00E94D9158EE791E00E94D915F09233
:1034A000A601E092A50182E0C82ED12C9AE0492E17
:1034B000512C612C712CE091A501F091A601809115
:1034C000A201882309F4ACC000811181F801808534
:1034D000811103C084E591E09FC0F8018185928548
:1034E000892B19F084E491E097C0C8010E94A504DB
:1034F000882309F480C0ADB6BEB6F801E680F78037
:1035000061E0F70180810E94EF0281E0F701818391
:103510001BA21AA21DA21CA21FA21EA240E050E0E4
:1035200060E871E0CE0182960E947A04F80162811F
:103530007381CE0182960E942B04CE0182960E9456
:1035400087124EA15FA14F5F5F4F8DB79EB7841B5F
:10355000950B0FB6F8949EBF0FBE8DBFEDB7FEB7AB
:1035600031967F01BF01CE0182960E945E12B701A3
:10357000F801808191810E94980FF801D286C1865E
:1035800085ED90E00E94EB15F8012281338140E047
:1035900050E019A2CE0181967C01CA01B901A301B4
:1035A00092010E94B51C605DF70162937F012115B5
:1035B00031054105510589F7CF010E94D9158EE7E4
:1035C00091E00E94D915F80182819381019693833D
:1035D0008283C8010E94A504811103C0F8011382EF
:1035E00012828AA19BA10E94911D0FB6F894BEBEC3
:1035F0000FBEADBE13C0F801848195810E94E10E1B
:10360000882341F082EF90E00E940C16C8010E94CE
:10361000500304C08EE191E00E940C161092A201AA
:103620000091A3011091A401F801E680F780F70151
:1036300086819781009781F082809380A480B580F5
:10364000880E991EA11CB11C0E94AE038616970617
:10365000A806B90608F4A4C0F8018085882351F1B2
:10366000818592858130910581F0029719F58091CD
:10367000500281111FC0848195810E94E10E882330
:1036800041F0C8010E94500315C080915002811181
:1036900011C0F801E680F78060E0F70180810E94A8
:1036A000EF02F7011182F8011286118680E691E09F
:1036B0000E940C160E94C202FECE80912A05811142
:1036C00088CE80911E05803109F582E080932A051D
:1036D00010923C0510923D0510923E0510923F0558
:1036E00080911F0590912005A0E0B0E025E0880FB3
:1036F000991FAA1FBB1F2A95D1F780933805909375
:103700003905A0933A05B0933B051FC0803209F0FC
:1037100060CE83E080932A054091210550912205D7
:10372000609123057091240540933C0550933D051D
:1037300060933E0570933F0528E335E087E095E010
:103740000E941A15882309F444CE87E095E09093EF
:10375000410580934005FF24F394F09229051092CF
:103760002B0510922C0510922D0510922E0510920B
:103770002F051092300510923105109232051092EB
:1037800033051092340510923505109236051092CB
:10379000370580EA90E00E940C16F801F0862FCEE3
:1037A000C7010E943B030E94AE03F701628373834B
:1037B0008483958351CF0895EFEDF4E01382128254
:1037C00088EE93E0A0E0B0E084839583A683B7837E
:1037D00023E131E031832083128E118E1486EAEFCB
:1037E000F4E0158216821186138642E050E060E014
:1037F00070E0458756876787708B14A216A615A6BA
:1038000025E231E034A723A710AAE4E4F5E013820F
:10381000128284839583A683B78321E331E03183C9
:103820002083E0E5F5E01382128284839583A683EA
:10383000B78383E491E09183808385EC90E0958762
:10384000848784EC90E09787868780EC90E0918B6A
:10385000808B81EC90E0938B828B82EC90E0958B57
:10386000848B86EC90E0978B868B118E128E138E54
:10387000148E0895BB27FB015527AA27880F991F8F
:10388000AA1FA41710F0A41B83955051B9F7A05D8F
:10389000AA3308F0A95DA193009779F7B111B1930C
:1038A0001192CB010C94541CDC01FC01672F719127
:1038B0007723E1F7329704C07C916D937083629116
:1038C000AE17BF07C8F308950E94A61CA59F900DD0
:1038D000B49F900DA49F800D911D112408952F92E7
:1038E0003F924F925F926F927F928F929F92AF9290
:1038F000BF92CF92DF92EF92FF920F931F93CF93DD
:10390000DF93CDB7DEB7CA1BDB0B0FB6F894DEBF73
:103910000FBECDBF09942A88398848885F846E8499
:103920007D848C849B84AA84B984C884DF80EE80E3
:10393000FD800C811B81AA81B981CE0FD11D0FB6EC
:10394000F894DEBF0FBECDBFED010895A29FB00178
:10395000B39FC001A39F700D811D1124911DB29FC3
:10396000700D811D1124911D0895A1E21A2EAA1B2C
:10397000BB1BFD010DC0AA1FBB1FEE1FFF1FA2171F
:10398000B307E407F50720F0A21BB30BE40BF50B1C
:10399000661F771F881F991F1A9469F760957095A5
:1039A000809590959B01AC01BD01CF010895052E36
:1039B00097FB1EF400940E94EE1C57FD07D00E9456
:1039C000B51C07FC03D04EF40C94EE1C50954095AA
:1039D000309521953F4F4F4F5F4F089590958095BB
:1039E000709561957F4F8F4F9F4F0895EE0FFF1F8A
:1039F0000590F491E02D0994CF93DF9382309105E7
:103A000010F482E090E0E091EF05F091F00520E005
:103A100030E0C0E0D0E0309711F14081518148178B
:103A20005907C0F04817590761F4828193812097A4
:103A300019F09B838A832BC09093F0058093EF0548
:103A400026C02115310519F04217530718F49A01C1
:103A5000BE01DF01EF010280F381E02DDCCF2115F3
:103A6000310509F1281B390B2430310590F41296E9
:103A70008D919C9113976115710521F0FB01938342
:103A8000828304C09093F0058093EF05FD01329688
:103A900044C0FD01E20FF31F81939193225031093D
:103AA0002D933C933AC02091ED053091EE05232BE8
:103AB00041F42091090130910A013093EE052093E1
:103AC000ED0520910701309108012115310541F4E0
:103AD0002DB73EB740910B0150910C01241B350BC3
:103AE000E091ED05F091EE05E217F307A0F42E1B2F
:103AF0003F0B2817390778F0AC014E5F5F4F241752
:103B0000350748F04E0F5F1F5093EE054093ED05CB
:103B10008193919302C0E0E0F0E0CF01DF91CF917B
:103B200008950F931F93CF93DF93009709F48CC0F0
:103B3000FC013297138212820091EF051091F0057B
:103B40000115110581F420813181820F931F20918D
:103B5000ED053091EE052817390779F5F093EE055C
:103B6000E093ED0571C0D80140E050E0AE17BF070B
:103B700050F412962D913C911397AD01211531050A
:103B800009F1D901F3CF9D01DA01338322836081EA
:103B90007181860F971F8217930769F4EC012881C2
:103BA0003981260F371F2E5F3F4F318320838A8153
:103BB0009B8193838283452B29F4F093F005E09356
:103BC000EF0542C01396FC93EE931297ED014991D5
:103BD00059919E01240F351FE217F30771F480817C
:103BE0009181840F951F029611969C938E938281EA
:103BF000938113969C938E931297E0E0F0E0D801A6
:103C000012968D919C911397009719F0F8018C01F1
:103C1000F6CF8D919C9198012E5F3F4F820F931F9D
:103C20002091ED053091EE052817390769F430979A
:103C300029F41092F0051092EF0502C0138212824F
:103C40001093EE050093ED05DF91CF911F910F9139
:103C50000895A0E0B0E0EFE2FEE10C94731CEC01EB
:103C6000009721F4CB010E94FC1CB8C0FC01E60FB8
:103C7000F71F9C0122503109E217F30708F4ACC08A
:103C8000D9010D911C91119706171707B0F0053057
:103C9000110508F49FC0C80104978617970708F418
:103CA00099C002501109061B170B019311936D93D4
:103CB0007C93CF010E94911D8DC05B01A01AB10AB7
:103CC0004C01800E911EA091EF05B091F00540E0EF
:103CD00050E0E12CF12C109709F44AC0A815B90561
:103CE000D1F56D907C901197630182E0C80ED11CD4
:103CF000CA14DB0480F1A3014A195B096A0182E05E
:103D0000C80ED11C1296BC9012971396AC91B5E0D8
:103D1000CB16D10440F0B282A38351834083D901F2
:103D20006D937C930AC00E5F1F4FC301800F911FDC
:103D3000F90191838083EB2DFA2FE114F10431F026
:103D4000D7011396FC93EE93129744C0F093F005BD
:103D5000E093EF053FC08D919C911197481759074B
:103D600008F4AC017D0112960D90BC91A02DB3CF4B
:103D70008091ED059091EE0588159905E1F44617BF
:103D80005707C8F48091070190910801009741F40A
:103D90008DB79EB740910B0150910C01841B950B80
:103DA000E817F907C8F4F093EE05E093ED05F90183
:103DB000718360830FC0CB010E94FC1C7C010097C3
:103DC00059F0A801BE010E94051FCE010E94911D5D
:103DD000C70104C0CE0102C080E090E0CDB7DEB7DD
:103DE000EEE00C948F1C81E090E0F8940C942F1F6F
:103DF000FB01DC0104C08D910190801921F4415038
:103E00005040C8F7881B990B0895FB01DC0102C0E4
:103E100001900D9241505040D8F70895FC018191D6
:103E2000861721F08823D9F7992708953197CF0174
:103E30000895FB01DC0101900D920020E1F7089547
:103E4000FB01DC014150504048F001900D920020F0
:103E5000C9F701C01D9241505040E0F7089510E0AD
:103E6000C8EED0E004C0FE010E94F61C2196C93EB7
:083E7000D107C9F7F894FFCF58
:103E7800010160FFFFFFFF0000F1052000000000C6
:103E8800000000080E7F0EEE01430EE70D4B0E55A5
:103E98000E000000009B0EC201EE01ED01000000C3
:103EA80000B1019D01EE01710195018101720100CE
:103EB8000000005902C201F101A00222020002140E
:103EC8000200000000E302C201EE01ED01E302E39B
:103ED80002E30200000000E302C201EE01ED01521C
:103EE80065636569766564206576656E74000D0A9C
:103EF80000646965722E77617600574952452049FA
:0E3F08004E495449414C495A4544002F00008F
:00000001FF
