:100000000C9449030C9458110C9431110C94710305
:100010000C9471030C9471030C943E160C947103B0
:100020000C9471030C9471030C9471030C94710380
:100030000C9471030C9471030C9471030C94710370
:100040000C94770E0C9471030C94A5110C947F11F1
:100050000C9471030C9471030C9471030C94710350
:100060000C948E120C94710300407A10F35A00A085
:10007000724E18090010A5D4E80000E87648170071
:1000800000E40B54020000CA9A3B000000E1F505B1
:10009000000080969800000040420F000000A086FB
:1000A00001000000102700000000E803000000002D
:1000B0006400000000000A000000000001000000D1
:1000C00000002C76D888DC674F0823DFC1DFAE59EB
:1000D000E1B1B796E5E3E453C63AE651997696E87E
:1000E000E6C28426EB898C9B62ED407C6FFCEFBC02
:1000F0009C9F40F2BAA56FA5F490055A2AF75C932D
:100100006B6CF9676DC11BFCE0E40D47FEF520E662
:10011000B500D0ED902E0300943577050080841E45
:10012000080000204E0A000000C80C333333330FA0
:10013000986E12831141EF8D2114893BE65516CF3D
:10014000FEE6DB18D1844B381BF77C1D901DA4BB49
:10015000E424203284725E228100C9F124ECA1E5FE
:100160003D2754534D3A49443A5245510A0054539D
:100170004D3A49440A002154534D3A49443A4641C4
:10018000494C0A0054534D3A49443A4F4B0A0054E3
:10019000534D3A55504C0A002154534D3A55504C4A
:1001A0003A4641494C0A0054534D3A55504C3A4452
:1001B0004757432C4F3D25642C4E3D25640A00547F
:1001C000534D3A55504C3A4F4B0A0054534D3A5206
:1001D000454144593A49443D25642C5041523D25FE
:1001E000642C4449533D25640A002154534D3A522E
:1001F000454144593A55504C204641494C2C5354A2
:100200004154500A0054534D3A4641494C3A5044E7
:10021000540A0054534D3A4641494C3A434E543DDA
:1002200025640A0054534D3A4641494C3A52452DF3
:10023000494E49540A004D434F3A50494D3A4E4FAA
:100240004445205245473D25640A00215453463A0F
:100250004D53473A52454C204D53472C4E52455032
:100260000A005453463A4D53473A42430A00545306
:10027000463A4D53473A41434B0A00215453463ABC
:100280004D53473A504F4E4720524543562C494E06
:100290004143544956450A005453463A4D53473A50
:1002A000504F4E4720524543562C48503D25640A36
:1002B000005453463A4D53473A50494E4745442C13
:1002C00049443D25642C48503D25640A005453465A
:1002D0003A4D53473A41434B205245510A0021546D
:1002E00053463A4D53473A505645522C25643D25C6
:1002F000640A00215453463A4D53473A4C454E2C1C
:100300002564213D25640A005453463A4D53473A2B
:10031000524541442C25642D25642D25642C733DC4
:1003200025642C633D25642C743D25642C70743D3C
:1003300025642C6C3D25642C73673D25643A257338
:100340000A0025735453463A4D53473A53454E4499
:100350002C25642D25642D25642D25642C733D25C5
:10036000642C633D25642C743D25642C70743D25FC
:10037000642C6C3D25642C73673D25642C66743DAC
:1003800025642C73743D25733A25730A0021545358
:10039000463A5254453A46504152204143544956F8
:1003A000450A00215453463A534E443A544E520A99
:1003B000004D434F3A5245473A5245510A00545373
:1003C000463A5755523A4D533D256C750A004D43F8
:1003D0004F3A42474E3A494E4954204F4B2C5453C2
:1003E000503D25640A004D434F3A42474E3A53541C
:1003F000500A004D434F3A42474E3A4246520A0095
:100400004D434F3A42474E3A494E4954204E4F448D
:10041000452C43503D524E4E4E412D2D2C564552AB
:100420003D322E312E310A0000000000230026004C
:1004300029006D66726335323220696E69746961B4
:100440006C697A65640053656E64207374617274BC
:100450007570206D657373616765004175746865BB
:100460006E7469636174696F6E206661696C65643E
:100470003A200052656164696E67206661696C6547
:10048000643A2000526573657420454550524F4DC3
:1004900020646F6E65210052657365742045455078
:1004A000524F4D0000000008000201000003040745
:1004B0000000000000000000646F6E6521005453CE
:1004C0004D3A494E49540A002154534D3A494E4938
:1004D000543A545350204641494C0A005453463A2A
:1004E0005349443A4F4B2C49443D25640A0021545A
:1004F00053463A5349443A4641494C2C49443D25D8
:10050000640A0054534D3A494E49543A53544154A5
:1005100049443D25640A0054534D3A494E49543AE2
:10052000545350204F4B0A0054534D3A46504152B9
:100530003A53544154503D25640A0054534D3A46B1
:100540005041520A00556E6B6E6F776E2065727265
:100550006F720041204D4946415245205049434366
:1005600020726573706F6E646564207769746820AB
:100570004E414B2E00546865204352435F41206436
:100580006F6573206E6F74206D617463682E00490F
:100590006E76616C696420617267756D656E742E2C
:1005A00000496E7465726E616C206572726F7220A4
:1005B000696E2074686520636F64652E2053686FD0
:1005C000756C64206E6F742068617070656E2E00AB
:1005D0004120627566666572206973206E6F7420B3
:1005E00062696720656E6F7567682E0054696D6576
:1005F0006F757420696E20636F6D6D756E696361D0
:1006000074696F6E2E00436F6C6C697373696F6EE3
:100610002064657465637465642E004572726F7240
:1006200020696E20636F6D6D756E69636174696FAB
:100630006E2E00537563636573732E000000000017
:10064000250028002B0000000000240027002A00BD
:100650000404040404040404020202020202030368
:100660000303030301020408102040800102040870
:100670001020010204081020214D434F3A534E44EC
:100680003A4E4F4445204E4F54205245470A0000F1
:10069000121E11241FBECFEFD8E0DEBFCDBF11E088
:1006A000A0E0B1E0ECE1FEE402C005900D92AC39AF
:1006B000B107D9F723E0ACE9B1E001C01D92A4373E
:1006C000B207E1F713E0C9E4D3E004C02197FE01CB
:1006D0000E941826C834D107C9F70E94211D0C9426
:1006E0000C270C9400008091A7018F70863068F071
:1006F0008AEE91E09F938F930E94B0168091A7019C
:10070000807F8093A7010F900F90089580915102F0
:100710001F928F93809150021F928F9380914F026E
:100720001F928F938BEC91E09F938F930E94B01652
:100730008091A60184608093A6018091A7018078B2
:100740008093A701E091A901F091AA018DB79EB70E
:1007500008960FB6F8949EBF0FBE8DBF309709F074
:1007600009940895AF92BF92CF92DF92EF92FF92D9
:100770000F931F93CF93DF93EC018A819091A60191
:1007800090FF0CC08F3F79F08DE893E09F938F939B
:100790000E94B0160F900F9010E0D0C08F3F19F05C
:1007A0000091500201C00FEF80914F0288834B816E
:1007B00042FD06C046954695469517E0140F01C0C8
:1007C00010E280E090E0892B21F080E090E00E9430
:1007D0000000299883E092E00197F1F76EE080E253
:1007E0000E949E0C8BE891E00197F1F7602F8AE25E
:1007F0000E949E0C602F80E30E949E0C81EE0E945E
:10080000BC0C0F3F11F080EA01C080EB412F113288
:1008100008F040E220E0BE010E94600C299AE12C21
:10082000F12C8FEF0E94BC0C182F807321F481E013
:10083000E81AF108B1F7299860E387E20E949E0C5C
:1008400014FF03C081EE0E94BC0C0E94AF0C15FB8C
:10085000112710F981E00F3F09F080E0182BCE013D
:100860000E949D1B111103C0ECE5F1E002C0E9E517
:10087000F1E06091A7016F702B8122FBAA24A0F800
:10088000322F3695369536952C81B22EB294B69489
:1008900047E0B422CD802770DE80EA80A02FB0E050
:1008A000F8807981111103C041E651E002C040E9AE
:1008B00051E09F938F93FF93EF931F926F931F923B
:1008C000AF921F923F931F92BF921F92CF921F929F
:1008D0002F931F92DF921F92EF92BF93AF931F92BD
:1008E000FF921F927F935F934F9382E493E09F93D5
:1008F0008F930E94B0168DB79EB74E960FB6F894A0
:100900009EBF0FBE8DBF80915002081317C01111FA
:1009100010C080E090E0892B21F085E690E00E94F5
:1009200000008091A70191E0980F9F70807F892B34
:1009300003C08091A701807F8093A701812FDF9161
:10094000CF911F910F91FF90EF90DF90CF90BF90CC
:10095000AF9008958091A701982F9077903759F024
:10096000982F92959F709F5F97709295907F8F7848
:10097000892B8093A7018091A701829587701F9290
:100980008F9383E192E09F938F930E94B0168091A2
:10099000A6018B7F8F7E8093A6010F900F900F9002
:1009A0000F9080E090E0892B21F087E690E00E9494
:1009B000000085E092E09F938F930E94B0162998E3
:1009C0000F900F906CE080E20C949E0C8FE891E009
:1009D0009F938F930E94B0160F900F9080E090E04D
:1009E000892B21F088E090E00E9400008FEF809337
:1009F000A8018091A60188608093A60128E143E0C8
:100A00006FEF80E00E94AD1C61E00E94160A0C941A
:100A1000B2030F931F930E946B0E00919E011091E1
:100A20009F012091A0013091A101601B710B820BED
:100A3000930B1F910F9108958EE691E09F938F93F2
:100A40000E94B0160F900F9080914F028F3FE1F4FB
:100A500080E090E0892B21F086E090E00E94000089
:100A600082E691E09F938F930E94B01623E043E0CB
:100A70006FEF80E00E94AD1C60E971E00E94220AE5
:100A80000F900F900C94B20308952091A60122FDBF
:100A90000C94B20383EA93E09F938F930E94B01665
:100AA0000F900F9080E008952F923F924F925F92A7
:100AB0006F927F928F929F92AF92BF92CF92DF926E
:100AC000EF92FF920F931F93CF93DF93CDB7DEB7D3
:100AD0002C970FB6F894DEBF0FBECDBFE0919C01FE
:100AE000F0919D010280F381E02D309709F0099586
:100AF0008091A60184FB222720F9298784FF30C337
:100B000086E0D82E90E0E92E90E0F92E9E012F5F2E
:100B10003F4F3C832B8320EA822E26E8922EAA2484
:100B2000A394B12C34EB432E3BE2532E31E1632EE0
:100B3000712C21E041E060E070E087E10E94600CF0
:100B400080FD0EC3DA94DD2009F40AC3E114F10438
:100B500021F081E090E00E94000021E041E060E0AF
:100B600070E080E60E94600CC82E30E2381720F456
:100B700082EE0E94BC0CC12C21E04C2D6FE473E08E
:100B800081E60E94600C60E487E20E949E0C8091E6
:100B90005203282F2695269526952A3108F029E11B
:100BA00082FD03C077E0720F01C070E280915303B1
:100BB00087708D83109154030091500320904F0350
:100BC000309051038FE493E02A877C870E949D1B1D
:100BD0002A85422F50E09F938F938091520382FB8E
:100BE000882780F91F928F931F922F938091530330
:100BF0008295869587701F928F931F921F931F92E5
:100C00002D812F93809155031F928F931F923F92B6
:100C10001F922F921F920F93A8E0B3E0BF93AF9360
:100C20004A875B870E94B0160FB6F894DEBF0FBEEE
:100C3000CDBF7C854A855B85C71679F0E114F10448
:100C400029F08CE690E00E9400007C851F927F9343
:100C50001F92CF9283EF92E017C020915203822F10
:100C600083708230E1F0E114F10421F08DE690E030
:100C70000E9400001F9282E08F9380915203837044
:100C80001F928F938EED92E09F938F930E94B016E8
:100C90000F900F900F900F900F900F904ACF809170
:100CA000A70180688093A70180914F02381254C039
:100CB000822F8695869586958A3108F089E138E0FD
:100CC000839FC00111242770822B80935203FA0165
:100CD000E15BFC4F17828091530383FF21C08DECB1
:100CE00092E09F938F930E94B01681E2EFE4F3E0CD
:100CF000AEE2B3E001900D928A95E1F78091320364
:100D0000877F80618093320380914F0280932F030D
:100D1000009330038EE293E00E9445050F900F9000
:100D20009091530394FD0BC02D81233081F4809169
:100D3000540321EF280F233008F050C0FACEAEE65E
:100D4000B2E0BF93AF930E94B0160F900F908FE464
:100D500093E00E94F60DEDCEFFEF3F1236C0A2E603
:100D6000B2E0BF93AF930E94B0160F900F902D8109
:100D7000233031F58091A60182FF03C0173009F4BA
:100D8000D8CE183009F4D5CE143109F0D2CE8091E6
:100D900050022812CECE0E946B0E737088279927BE
:100DA0000E94DA151091500225E143E06FEF802F89
:100DB0000E94AD1C612F0E94160A0E94B203B9CE98
:100DC000809150022812B5CEC2CFABE4B2E0BF93FF
:100DD000AF930E94B0160F900F90ABCE143009F471
:100DE000A8CE1831D1F48FE493E00E94D70A1F9265
:100DF0008F931F920F9381EB92E09F938F930E94AA
:100E0000B01629E143E06FEF802F0E94AD1C61E036
:100E10000E94160A0E94B2033BCF1931B9F48091A7
:100E2000A60183FF10C0877F8093A6018FE493E023
:100E30000E94D70A8093A8011F928F9388E992E0BD
:100E40009F938F933CC0ABE7B2E0C1CF209150039A
:100E5000211182C18D3099F480E090E0892B21F03E
:100E60008BE090E00E94000098E088E10FB6F894D3
:100E7000A895809360000FBE90936000FFCF8B31E8
:100E800029F58FE493E00E94D70A91E0811101C017
:100E900090E080914E0290FB80F980934E02E11425
:100EA000F10421F08AE090E00E94000080914E025F
:100EB00081701F928F93A6E3B2E0BF93AF930E941D
:100EC000B0160F900F900F900F9033CE8630A9F48C
:100ED00090915603992329F081E09D3419F080E028
:100EE00001C0898580934D0241E050E063E071E0EC
:100EF0008DE492E00E948F251CCE833119F40E946C
:100F0000570A17CE8231F1F40E9409056D837E8362
:100F10008F83988726E143E06FEF80E00E94AD1C4D
:100F2000FC0184818F71806A8483838187708062F1
:100F300083838D819E81AF81B88587839087A187C8
:100F4000B287DAC0813001F5A0E0B0E0AB2B09F444
:100F5000F0CD929596959770953049F4609156032F
:100F60007091570380915803909159030AC09111D1
:100F700005C086E593E00E94BD1F03C060E070E0FD
:100F8000CB010E940000D5CD8A3009F4D2CD8C313E
:100F900009F0DDCE80915603823509F4CACD86353D
:100FA000B1F58EE480937C0066E470E080E090E030
:100FB0000E94DA1580917A00806480937A00809193
:100FC0007A0086FDFCCF20907800309079002CE1EB
:100FD00043E06FEF80E00E94AD1C8C01FC01848136
:100FE0008F718066848383818770806183839101A0
:100FF00040E050E0C301B2010E94F625D8011896E6
:101000003C932E931797C8010E94450592CD8634D4
:1010100009F052C0F8948FEF86BB109285001092B1
:1010200084001092800010928200909160002DE068
:1010300088E10FB6F894A895809360000FBE2093C6
:10104000600080916000806480936000A89585E0D6
:10105000809381008091600087FFFCCF1092810017
:10106000A8958091600088618093600090936000F3
:10107000789420908400309085002CE143E06FEF5D
:1010800080E00E94AD1C8C01FC0184818F71806620
:1010900084838381877080618383C101A0E0B0E095
:1010A000BC01CD014BE0660F771F881F991F4A9541
:1010B000D1F7A5019401A0CF8D3401F50091700303
:1010C000109171030115110511F404E713E02CE1EF
:1010D00043E06FEF80E00E94AD1CFC0184818F71C2
:1010E0008066848383818770806183838B819C8108
:1010F000801B910B90878783CF0186CF853409F0C1
:1011000018CD2CE143E06FEF80E00E94AD1C69E553
:1011100071E00E94220A0E94450500E010E06FEF96
:10112000C8010E949F250F5F1F4F0D39B1E01B07BB
:10113000B1F780E090E0892B21F08BE090E00E94F5
:10114000000098E088E10FB6F894A89580936000BD
:101150000FBE90936000FFCF8A3109F0F8CDE9CC43
:101160002C960FB6F894DEBF0FBECDBFDF91CF91A6
:101170001F910F91FF90EF90DF90CF90BF90AF90B5
:101180009F908F907F906F905F904F903F902F90A7
:1011900008959C0180919C0190919D018217930775
:1011A00051F09091A6019F719093A60130939D01FB
:1011B00020939C0105C08091A601805E8093A601CA
:1011C000E0919C01F0919D010190F081E02D30971C
:1011D00009F009950E946B0E60939E0170939F0128
:1011E0008093A0019093A10108950F931F930E94F3
:1011F00009052091A7012077203729F000E117E2A7
:1012000020E030E004C000E61AEE20E030E00617EF
:1012100017072807390770F484E292E09F938F93B1
:101220000E94B0160F900F9085E191E01F910F91F1
:101230000C94C9081F910F9108958091A8018F3FC8
:1012400079F10E946B0E6093A2017093A3018093C9
:10125000A4019093A5018FEB91E09F938F930E943F
:10126000B0169091A801809151020F900F9098179D
:10127000A1F01F929F931F928F9387EA91E09F9313
:101280008F930E94B0168091A801809351020F9015
:101290000F900F900F900F900F9080E191E025C07C
:1012A0000E940905613D77408105910500F180911B
:1012B000A601803618F48CE091E017C088E991E02F
:1012C0009F938F930E94B0168091A601877F809391
:1012D000A6010F900F9080E090E0892B21F08AE624
:1012E00090E00E94000088E091E00C94C908089505
:1012F00080914F028F3F99F084E891E09F938F9304
:101300000E94B0160F900F9080E090E0892B21F0A2
:1013100087E090E00E9400008CE091E020C00E94F5
:101320000905613D774081059105D8F08091A601BE
:10133000803618F484E091E012C086E791E09F9334
:101340008F930E94B0160F900F9080E090E0892B51
:1013500021F089E690E00E94000080E091E00C948A
:10136000C908089580E090E0892B21F085E090E0A5
:101370000E94000084E091E00C94C9080F931F9331
:10138000CF93DF9386E090E00E94721EEC0186E02E
:1013900090E00E94721E8C0184E0F80180830E941C
:1013A000531C1983088386E090E00E94721E8C0112
:1013B00083E0F80180830E94531C1B830A8386E02C
:1013C00090E00E94721E8C0182E0F80180830E94EE
:1013D000531C1D830C83D093AC01C093AB01DF91F0
:1013E000CF911F910F910895CF93DF9387E00E94D3
:1013F000531C60E087E00E94E51388E00E94531CC4
:1014000060E088E00E94E513C091AB01D091AC018F
:10141000888199810E9457168A819B810E94571664
:101420008C819D81DF91CF910C945716FC018381B3
:1014300087708860838384818F71806284836783EF
:10144000CF0108950F931F93CF93DF93EC016115A4
:10145000710561F0FB0101900020E9F73197E61B6F
:10146000F70BE931F10518F0E9E101C0E0E00E2FDA
:1014700010E0C80123E0880F991F2A95E1F79B81AE
:101480009770892B8B838C818F718C83EE2329F04D
:10149000A801CE0107960E94FD26FE01E00FF11F74
:1014A0001782CE01DF91CF911F910F910895CF93B5
:1014B00080E090E0892B21F08CE090E00E94000019
:1014C0002FE043E06FEF80E00E94AD1C60E971E027
:1014D0000E94220A809131038770806180933103DA
:1014E000809132038F71806C8093320381E080930E
:1014F0003503109236038EE293E00E9445058FE09B
:101500000E94BC1C21E140E06FEF80E00E94AD1C16
:1015100063E671E00E94220A0E944505C0915002D4
:1015200026E043E06FEF80E00E94AD1C6C2F0E942C
:10153000160A0E94450586E00E94BC1CCF910C94BF
:101540003A0ECF9380914E0281FD2FC00E94570A20
:1015500081EB93E09F938F930E94B0160F900F90B2
:1015600080E090E0892B21F089E090E00E9400006B
:1015700080914E02816080934E02C4E02AE143E0F4
:101580006FEF80E00E94AD1C62E00E94160A0E948C
:1015900045058BE10E94BC1C811102C0C15071F74E
:1015A00080914E02826080934E02CF910895FC019B
:1015B0002481229526952770213011F48781089582
:1015C000211104C007960E949F1F089580E008958E
:1015D000CF93DF93FC011082118212821482158254
:1015E0001682DC0117968AE1ED0119928A95E9F7D6
:1015F00082E08383DF91CF910895AF92BF92CF9223
:10160000DF92EF92FF920F931F93CF93DF93CDB7AB
:10161000DEB7A2970FB6F894DEBF0FBECDBF8AE04B
:1016200090E00E94721E7C010091AB011091AC0110
:10163000FC0111830083F801808191810E9448168A
:10164000F801828193810E944816F8018481958176
:101650000E94481684E090E00E94721E6C01FC011A
:10166000F382E28281E290E00E94721E8C010E946D
:10167000E80A82E4F801868389E18583F601118313
:101680000083F701D186C08684E090E00E94721E3C
:101690006C01FC01F182E08280E190E00E94721E08
:1016A0008C018FE291E0F8019183808388E0868746
:1016B00087E08787F6011383028388E00E94531C2A
:1016C00061E0F80186850E94E513F80187858F3F68
:1016D00061F44FE062E0C8010E94351462E370E0FB
:1016E00080E090E00E94DA1524C00E94531CF801AB
:1016F000278530E0F901EC55FB4F8491F901EC5955
:10170000F94FA490F901E05BF94FB490BB2009F4C4
:10171000C0C081110E94BC13EB2DF0E0EE0FFF1F43
:10172000E85DFB4FA591B491EC91AE2209F4B1C0F4
:10173000D0CF62E0C8010E94151484FDFACF40E0CA
:1017400064E2C8010E94351440E066E2C8010E94CC
:10175000351446E268E4C8010E94351440E864E5A7
:10176000C8010E94351449EA66E5C8010E94351493
:1017700043E068E5C8010E94351448EE6AE5C801F7
:101780000E94351440E46AE2C8010E9435144DE31A
:1017900062E2C8010E94351468E2C8010E94151473
:1017A000982F9370933031F0482F436068E2C8015E
:1017B0000E94351482E394E00E948D1BF701D582CC
:1017C000C48281E090E00E94721E8C011092DC01C4
:1017D0001092DB011092D8011092D9011092DE0113
:1017E00081E08093E0011092DF0161E082E10E94DC
:1017F000E51361E083E10E94E5139091B9009E7FBB
:101800009093B9009091B9009D7F9093B90088E4BE
:101810008093B80085E48093BC00F70117830683AA
:101820008FEF90E09A83898385E290E00E9487257C
:10183000682F898386E290E06AA30E9487258A83C5
:1018400086E494E00E948D1BCE0101960E94E80A76
:1018500082E48F8388E18E831B826AA1CE01019688
:101860000E94160A0E943A1CF092AE01E092AD016D
:10187000A2960FB6F894DEBF0FBECDBFDF91CF9119
:101880001F910F91FF90EF90DF90CF90BF90AF909E
:10189000089561E0F80187850E94E51362E370E036
:1018A00080E090E00E94DA154ACF08958EBD0000D6
:1018B0000DB407FEFDCF8EB508958CBD9DBD089576
:1018C000CF92DF92EF92FF920F931F93CF93DF930C
:1018D000C82F7B01142F022F81E591E00E945D0C3F
:1018E0002A98E3E2F0E03197F1F78C2F0E94560C32
:1018F000E7011123A9F0002349F08FEF0E94560C55
:10190000E114F10459F08883219608C06E018FEF2D
:10191000C81AD80A88810E94560CE6011150E9CFF6
:101920002A9AE3E2F0E03197F1F7DF91CF911F912E
:101930000F91FF90EF90DF90CF900895CF93DF93BA
:101940001F92CDB7DEB7698320E041E0BE016F5F33
:101950007F4F0E94600C0F90DF91CF9108956FE050
:1019600080E20E949E0C609114016F3F19F08AE2A0
:101970000E949E0C299A089520E040E060E070E00B
:101980000C94600C0895CF92DF92EF92FF920F9328
:101990001F93CF93DF936C017A018B01C0E0D0E0FD
:1019A000CE15DF0589F0D8016D918D01D601ED913D
:1019B000FC910190F081E02DC6010995892B11F46D
:1019C0007E0102C02196ECCFC701DF91CF911F911C
:1019D0000F91FF90EF90DF90CF900895089580E0F1
:1019E00090E00895FC01538D448D252F30E0842F25
:1019F00090E0821B930B541710F0CF960895019737
:101A00000895FC01918D828D981761F0828DDF0120
:101A1000A80FB11D5D968C91928D9F5F9F73928FE1
:101A200090E008958FEF9FEF0895FC01918D828DD6
:101A3000981731F0828DE80FF11D858D90E00895A3
:101A40008FEF9FEF0895FC01918D228D892F90E0FB
:101A5000805C9F4F821B91098F739927089581E9BC
:101A600092E00E94230D21E0892B09F420E0822FCF
:101A70000895FC01848DDF01A80FB11DA35ABF4F4B
:101A80002C91848D90E001968F739927848FA6897D
:101A9000B7892C93A089B1898C9180648C93938DA4
:101AA000848D981306C00288F389E02D80818F7D94
:101AB00080830895EF92FF920F931F93CF93DF934C
:101AC000EC0181E0888F9B8D8C8D981305C0E8898F
:101AD000F989808185FD24C0F62E0B8D10E00F5F03
:101AE0001F4F0F731127E02E8C8DE8120CC00FB61C
:101AF00007FCFACFE889F989808185FFF5CFCE010F
:101B00000E94390DF1CF8B8DFE01E80FF11DE35AD4
:101B1000FF4FF0820B8FEA89FB898081806207C0CA
:101B2000EE89FF896083E889F989808180648083F8
:101B300081E090E0DF91CF911F910F91FF90EF90A6
:101B40000895CF93DF93EC01888D8823C9F0EA894B
:101B5000FB89808185FD05C0A889B9898C9186FDA6
:101B60000FC00FB607FCF5CF808185FFF2CFA889A3
:101B7000B9898C9185FFEDCFCE010E94390DE7CF59
:101B8000DF91CF91089580E090E0892B29F00E94A9
:101B90002F0D81110C94000008950E94E8260F93E8
:101BA0001F93CF93DF93EC0188819981009729F0EF
:101BB0002A813B812617370788F48B016F5F7F4F9F
:101BC0000E941E26009761F0998388831B830A83F5
:101BD0002C813D81232B11F4FC01108281E001C096
:101BE00080E0DF91CF911F910F9108950F931F9384
:101BF000CF93DF931F92CDB7DEB7FC0125812A3149
:101C000049F02C3189F587E994E00E948D1B00E0B2
:101C100010E014C00E94D70A682F85E290E0698323
:101C20000E94872569816817F9F085E290E00F909E
:101C3000DF91CF911F910F910C94B1256FEFC801E7
:101C40000E94B1250F5F1F4F0115F4E01F07B1F788
:101C500084E894E00E948D1BE0E0F0E00F90DF91BB
:101C6000CF911F910F9109940F90DF91CF911F9108
:101C70000F91089527E140E062E480E00E94AD1CEE
:101C800060E971E00E94220A0C9445053FB7F89480
:101C90008091B4019091B501A091B601B091B701C6
:101CA00026B5A89B05C02F3F19F00196A11DB11DB7
:101CB0003FBFBA2FA92F982F8827820F911DA11DF2
:101CC000B11DBC01CD0142E0660F771F881F991F2F
:101CD0004A95D1F708952FB7F8946091B0017091AB
:101CE000B1018091B2019091B3012FBF08951F926D
:101CF0000F920FB60F9211242F933F938F939F93C0
:101D0000AF93BF938091B0019091B101A091B201C6
:101D1000B091B3013091AF0123E0230F2D3720F4B0
:101D20000196A11DB11D05C026E8230F0296A11D35
:101D3000B11D2093AF018093B0019093B101A093A6
:101D4000B201B093B3018091B4019091B501A0911B
:101D5000B601B091B7010196A11DB11D8093B401E8
:101D60009093B501A093B601B093B701BF91AF9125
:101D70009F918F913F912F910F900FBE0F901F90C9
:101D80001895EF92FF920F931F93CF93DF93FC016F
:101D9000248135816115710511F480E019C0411568
:101DA0005105A9F07B01EC018A01020F131FB80154
:101DB0000E94CF0D882389F3288139818C819D81F0
:101DC000B701820F931F0E94F6261D830C8381E0CA
:101DD000DF91CF911F910F91FF90EF900895CF93D6
:101DE000DF93EC0188819981009711F00E94071F11
:101DF000198218821D821C821B821A82DF91CF9168
:101E00000895EF92FF920F931F93CF93DF93EC010E
:101E10007B018A01BA010E94CF0D811104C0CE015D
:101E20000E94EF0E07C01D830C83B7018881998142
:101E30000E94F626CE01DF91CF911F910F91FF9066
:101E4000EF900895FC01808191810C94071FFC01A3
:101E5000118210821382128215821482611571051B
:101E600051F0FB0101900020E9F73197AF01461BCB
:101E7000570B0C94010F08952F923F924F925F924F
:101E80006F927F928F929F92AF92BF92CF92DF928A
:101E9000EF92FF920F931F93CF93DF93CDB7DEB7EF
:101EA000AD970FB6F894DEBF0FBECDBF8091AD01E8
:101EB0009091AE019CA78BA7DC0114966D907C904D
:101EC000159760E971E0CE0185960E94270F912C4D
:101ED0008E010F5F1F4FF301A281B38112968C9187
:101EE0001297981608F048C0492C512CA40DB51D26
:101EF00013968C91803118F06CE871E002C069E6AD
:101F000071E0C8010E94270F4D815E8169817A814D
:101F1000CE0185960E94C10EC8010E94220FF301D6
:101F200082819381FC01E40DF51D83811C8A1B8A4B
:101F30001E8A1D8A188E1F8A40E1B80190E00E9417
:101F40003D20F80101900020E9F73197AF01401BD7
:101F5000510BB801CE0143960E94010F4F89588D55
:101F60006B897C89CE0185960E94C10ECE01439675
:101F70000E94220F9394AFCFED91FC9111970280B4
:101F8000F381E02DCD010995882309F438C1D301EF
:101F900012968D919C911397DC01ED91FC91048038
:101FA000F581E02D0995182F882309F428C18FEFBA
:101FB00089838A838B838C838D838E8386E0FE0165
:101FC0003196DE01539601900D928A95E1F786E0F5
:101FD000FE017396DE01599601900D928A95E1F704
:101FE00086E0FE017996DE015F9601900D928A955A
:101FF000E1F7F3018281938120E6298321E02A839E
:102000002E01FFE14F0E511CFE013396D2019E2E90
:10201000FDA726E0240D3D9131932A13FCCFDE016C
:10202000199620E030E0FC014281E20FF31FE40F3B
:10203000F11D319740814D932F5F3F4F2430310583
:1020400091F71F92812CA12CB12CC12CD12CE12C09
:10205000F12C0CE09E012F5F3F4F40E16EE00E94AB
:10206000A914082F0F90882351F08BE594E00E946B
:102070006C1B802F0E94F21C0E948D1B02C011114C
:1020800014C0D301ED91FC910190F081E02D00810D
:102090001181C8010E9457160E946B0EDC01CB0112
:1020A0008C509E4FAF4FBF4F5BC082E18F8FD301EB
:1020B00012962D903C90139780E3898301E00A8368
:1020C000292D3DA542E0BE016F5F7F4FC1010E94F7
:1020D0005D14811114C00F93812CA12CB12C6201CD
:1020E000FE0131967F0104E09F0140E36CE0C101F5
:1020F0000E94A914582E0F90882361F001C0582E19
:1021000083E794E00E946C1B852D0E94F21C0E94C4
:102110008D1B13C0DE011196ECE6F1E02D9181914B
:1021200030E0082E000C990B2817390731F421E014
:10213000E837F20799F7111119C0D301ED91FC911D
:102140000190F081E02D00811181C8010E94571695
:102150000E946B0EDC01CB0188519C4FAF4FBF4FEB
:10216000F80182839383A483B5831DC01A821982E8
:102170001C821B821E821D826DA17EA161157105CC
:1021800031F049A55AA5CE0101960E94010FBE016A
:102190006F5F7F4FD3018D919C910E947218CE0189
:1021A00001960E94220FF3014280538080E58983CB
:1021B0001A82292D3DA542E0BE016F5F7F4FC2010B
:1021C0000E945D14811112C01F92812CA12CB12C90
:1021D000C12CD12CE12CF12C04E09E012F5F3F4F4C
:1021E00040E36CE0C2010E94A9140F9048E060E156
:1021F000D30112968D919C9113970E94C015CE0128
:1022000085960E94220FEBA5FCA500811181D801C3
:102210008D919C910E946716F801828193810E94A2
:102220006716D80114968D919C9115970E94671698
:10223000AD960FB6F894DEBF0FBECDBFDF91CF9144
:102240001F910F91FF90EF90DF90CF90BF90AF90D4
:102250009F908F907F906F905F904F903F902F90C6
:1022600008951F920F920FB60F9211242F933F9350
:102270004F935F936F937F938F939F93AF93BF938E
:10228000EF93FF93E0911B01F0911C010995FF91E1
:10229000EF91BF91AF919F918F917F916F915F91DE
:1022A0004F913F912F910F900FBE0F901F90189557
:1022B0001F920F920FB60F9211242F933F934F93BB
:1022C0005F936F937F938F939F93AF93BF93EF939E
:1022D000FF93E0911901F0911A010995FF91EF9197
:1022E000BF91AF919F918F917F916F915F914F912E
:1022F0003F912F910F900FBE0F901F9018951F9236
:102300000F920FB60F9211242F933F934F935F9329
:102310006F937F938F939F93AF93BF93EF93FF93AD
:1023200081E992E00E94390DFF91EF91BF91AF9149
:102330009F918F917F916F915F914F913F912F91DD
:102340000F900FBE0F901F9018951F920F920FB60F
:102350000F9211242F938F939F93EF93FF93E0910C
:10236000A102F091A2028081E091A702F091A8025F
:1023700082FD12C090818091AA028F5F8F7320919D
:10238000AB02821751F0E091AA02F0E0EF56FD4F48
:10239000958F8093AA0201C08081FF91EF919F9158
:1023A0008F912F910F900FBE0F901F90189585ED74
:1023B0008093BC008091BC0084FDFCCF1092DE01B4
:1023C000089540912602262F30E0240F311D21323E
:1023D0003105DCF42091DE012430C9F4FC0180E0F9
:1023E00090E0861758F4309126022191DC01AC5F11
:1023F000BD4FA30FB11D2C930196F3CF8091260200
:10240000680F6093260280E0089581E0089582E0DD
:102410000895089581E090E03091DC012091DB0186
:10242000321710F480E090E091958195910908951C
:102430008091DC019091DB01891730F48F5F8093EC
:10244000DC0180E090E008958FEF9FEF0895809188
:10245000DB0190E02091DC01821B91090895CF926D
:10246000DF92EF92FF920F931F93CF93DF937C0144
:10247000262F972F8A018091DA01882391F0C62FA9
:10248000D72F6E01C40ED51ECC15DD0571F06991F4
:10249000D701ED91FC910190F081E02DC7010995E4
:1024A000F3CF642F822F0E94E111C801DF91CF91F9
:1024B0001F910F91FF90EF90DF90CF900895CF93F1
:1024C000DF931F92CDB7DEB769832091DA01222313
:1024D000D1F02091D901203240F021E030E0FC0120
:1024E0003383228380E090E015C08091D801E82FEB
:1024F000F0E0E854FE4F998190838F5F8093D8017C
:102500008093D90105C061E0CE0101960E94E111DE
:1025100081E090E00F90DF91CF9108951F920F928C
:102520000FB60F9211242F933F934F935F936F93A6
:102530007F938F939F93AF93BF93EF93FF9380917C
:10254000B900887F803609F49CC068F5883209F4A8
:102550005BC090F4803109F454C038F4882309F446
:10256000F6C0883009F44DC0F6C0883109F44CC07B
:10257000803209F45DC0EFC0803409F468C048F4CB
:10258000803309F455C0883309F0E5C08093DD013C
:10259000D8C0803509F44FC0883509F45DC088344F
:1025A00009F0D9C0D6C0883909F4C7C0A8F4883763
:1025B00009F467C038F4883609F463C0803709F439
:1025C00060C0C9C0883809F4B8C0803909F45FC058
:1025D000803809F0C0C05BC0803B09F486C038F485
:1025E000803A09F466C0883A09F47FC0B4C0803CE0
:1025F00009F4A7C0883C09F4A4C0883B09F48AC048
:10260000AAC08091030210C0909102028091010241
:10261000981770F5E091020281E08E0F809302021C
:10262000F0E0EF51FE4F80818093BB0085EC86C0C7
:102630008093DD018EC0E091020281E08E0F8093D5
:1026400002028091BB00F0E0EF51FE4F8083909139
:102650000202809101026EC0E091020281E08E0FC1
:10266000809302028091BB00F0E0EF51FE4F808327
:102670008091E00181116DC081E08093DF0184EAE7
:1026800061C083E08093DE0110924A02CFCF809137
:102690004A02803208F051C0E0914A0281E08E0F78
:1026A00080934A028091BB00F0E0E65DFD4F80839D
:1026B000BDCF85EC8093BC001092DE0180914A0270
:1026C000803230F4E0914A02F0E0E65DFD4F108286
:1026D00060914A0270E0E0912802F09129028AE2BA
:1026E00092E0099510924A0236C084E08093DE01A0
:1026F0001092270210922602E0912402F091250206
:10270000099580912602811105C081E080932602FF
:1027100010920402E091270281E08E0F809327023D
:10272000F0E0EC5FFD4F80818093BB009091270229
:1027300080912602981708F479CF85E88093BC0031
:102740000AC085EC8093BC001092DE0104C0109298
:10275000DD010E94D711FF91EF91BF91AF919F9141
:102760008F917F916F915F914F913F912F910F903A
:102770000FBE0F901F901895833081F028F48130A0
:1027800099F08230A1F008958730A9F08830B9F02F
:102790008430D1F4809180008F7D03C080918000CF
:1027A0008F7780938000089584B58F7702C084B5B9
:1027B0008F7D84BD08958091B0008F7703C0809194
:1027C000B0008F7D8093B00008951F93CF93DF9367
:1027D000282F30E0F901EC55FB4F8491F901EC59B9
:1027E000F94FD491F901E05BF94FC491CC23C9F0C2
:1027F000162F81110E94BC13EC2FF0E0EE0FFF1F8B
:10280000E45CF94FA591B4918FB7F894111105C00C
:102810009C91ED2FE095E92302C0EC91ED2BEC9318
:102820008FBFDF91CF911F9108951F93CF93DF93B7
:10283000EC01162F83E590E00E945D0C60E08E8530
:102840000E94E513812F80680E94560C80E00E9450
:10285000560C182F61E08E850E94E5130E94550CDE
:10286000812FDF91CF911F910895EF92FF921F93D7
:10287000CF93DF931F92CDB7DEB77C01162F83E590
:1028800090E049830E945D0C60E0F70186850E941C
:10289000E513812F0E94560C4981842F0E94560C0B
:1028A00061E0F70186850E94E5130F90DF91CF91DB
:1028B0001F91FF90EF900C94550CCF92DF92EF9206
:1028C000FF920F931F93CF93DF93EC016B01142FB3
:1028D000790140E062E00E94351444E06AE0CE01F4
:1028E0000E94351440E864E1CE010E943514A6012F
:1028F000612FCE010E94721C43E062E0CE010E9473
:10290000351408E813E16AE0CE010E94151482FF35
:1029100013C040E062E0CE010E94351464E4CE01B1
:102920000E941514F701808362E4CE010E94151401
:10293000F701818380E004C00150110921F783E091
:10294000DF91CF911F910F91FF90EF90DF90CF908B
:1029500008953F924F925F926F927F928F929F92D3
:10296000AF92BF92CF92DF92EF92FF920F931F939D
:10297000CF93DF9300D0CDB7DEB73C01162F942E56
:102980002901A114B10419F0F501408101C040E012
:10299000342EF0E18F9E300C112440E062E0C30140
:1029A0000E9435144FE768E0C3010E94351440E8E7
:1029B00064E1C3010E943514A201602FC3010E948B
:1029C000721C432D6AE1C3010E943514412F62E05D
:1029D000C3010E9435141C3051F46AE1C3010E9406
:1029E0001514482F40686AE1C3010E94351400EDB8
:1029F00017E068E0C3010E941514982F992139F45B
:102A000080FD03C001501109A1F783E0A5C06CE06F
:102A1000C3010E941514982E837109F09CC0E11423
:102A2000F10409F45DC0C114D10409F459C064E192
:102A3000C3010E941514182FF6018081811708F434
:102A400084C01083112309F440C083E590E00E9404
:102A50005D0C60E0F30186850E94E51382E90E9427
:102A6000560C8820A1F08FEF90E02C0101C0440C9F
:102A70008A94EAF782E90E94560C84214094F70177
:102A800090814922482A40828824839401C0812C65
:102A900055245A94510E282D30E08701020F131F40
:102AA000851438F482E90E94560CF80180838394DF
:102AB000F2CF80E00E94560CF801808361E0F301C0
:102AC00086850E94E5130E94550C68E1C3010E94AF
:102AD00015148770A114B10421F0F501808301C0A1
:102AE00080E093FC34C0E114F10499F1C114D104E5
:102AF00081F19E89992369F1F6014081413019F4F1
:102B0000843019F420C0423010F487E025C08111D0
:102B1000FCCF42509E012F5F3F4FB701C3010E947F
:102B20005D14811119C0F6018081E80EF11CF701D6
:102B30003297908189819813E8CF319690818A816C
:102B40009813E3CF06C08FEF07C084E005C082E092
:102B500003C080E001C081E00F900F90DF91CF9122
:102B60001F910F91FF90EF90DF90CF90BF90AF90AB
:102B70009F908F907F906F905F904F903F900895BF
:102B8000EF92FF921F93CF93DF931F92CDB7DEB7E3
:102B90007C01162F49830E941514498140954823D2
:102BA000612FC7010F90DF91CF911F91FF90EF90A0
:102BB0000C9435148F929F92AF92BF92CF92DF9276
:102BC000EF92FF926B017C010E94460E4B015C016B
:102BD000C114D104E104F104F1F00E94460EDC01BD
:102BE000CB0188199909AA09BB09883E9340A10520
:102BF000B10570F321E0C21AD108E108F10888EEAE
:102C0000880E83E0981EA11CB11CC114D104E104FC
:102C1000F10419F7DDCFFF90EF90DF90CF90BF90D8
:102C2000AF909F908F9008950F931F93CF93DF9352
:102C3000CDB7DEB7A1970FB6F894DEBF0FBECDBFFC
:102C40008B01CE0101960E94E80A82E48F8389E11C
:102C50008E831B82F80160817181CE0101960E94F2
:102C6000220A0E943A1CA1960FB6F894DEBF0FBE4E
:102C7000CDBFDF91CF911F910F9108951F920F92B9
:102C80000FB60F9211240F900FBE0F901F90189542
:102C9000CF93DF93EC0160E088810E94E5131982F5
:102CA0001A821B821C821D82DF91CF910895CF93DF
:102CB000DF93EC0161E088810E94E51381E0898364
:102CC0001A821B821C821D82DF91CF910895CF92C0
:102CD000DF92EF92FF92CF93DF93FC01C280D3800B
:102CE000E480F580C114D104E104F104E9F0EC01C1
:102CF0000E946B0EC616D706E806F906A8F489816D
:102D0000882349F0CE01DF91CF91FF90EF90DF90C3
:102D1000CF900C944816CE01DF91CF91FF90EF90A9
:102D2000DF90CF900C945716DF91CF91FF90EF90EA
:102D3000DF90CF9008956115710579F0FB01019046
:102D40000020E9F73197AF01461B570BDC01ED91ED
:102D5000FC910280F381E02D099480E090E00895D9
:102D6000CF92DF92EF92FF920F931F93CF93DF9357
:102D7000CDB7DEB7C857D1090FB6F894DEBF0FBE86
:102D8000CDBF0E946B0E9B01AC0119A28E010F5D9D
:102D90001F4F8AE0C82ED12CE12CF12CCA01B901B9
:102DA000A70196010E94F625605DF80162938F01EC
:102DB000211531054105510589F7BF0181E992E0EF
:102DC0000E949B166CE871E081E992E00E949B16DC
:102DD0009E012B573F4FCD57DF4F48815981C35834
:102DE000D04068E770E0CE0101960E945720BE01F6
:102DF0006F5F7F4F81E992E00E949B1681E992E02C
:102E00000E94A10DC858DF4F0FB6F894DEBF0FBE69
:102E1000CDBFDF91CF911F910F91FF90EF90DF9089
:102E2000CF9008958BE395E09F938F930E94B01607
:102E30000F900F9080E090E0892B21F084E090E0EB
:102E40000E9400008091A6018B7F8D7F8093A60158
:102E50001F921F9288E295E09F938F930E94B01675
:102E60008091A6018E7F8093A60181E0809351021C
:102E7000109250020F900F900F900F9060E081E041
:102E800090E00C949F25CF93219A229ACFB7F89483
:102E900080914C02811124C0EAE5F6E08491EEE6CF
:102EA000F6E09491E82FF0E0EE0FFF1FEA5BF94F98
:102EB000A591B491EC91E92321F461E08AE00E94AC
:102EC000E5138AE00E94531C8CB580618CBD8CB5E3
:102ED00080648CBD8DE00E94531C8BE00E94531CCB
:102EE00080914C028F5F80934C02CFBF29982A9A21
:102EF0006EE080E20E949E0C65E070E080E090E071
:102F00000E94DA1563E083E20E949E0C6FE584E282
:102F10000E949E0C65E485E20E949E0C67E286E2B8
:102F20000E949E0C63E780E50E949E0C66E08DE3A4
:102F30000E949E0C21E041E060E070E086E00E948B
:102F4000600CC82F21E041E060E070E085E00E9465
:102F5000600C853409F097C0C73209F094C062E074
:102F600082E20E949E0C60E081E20E949E0C63E07F
:102F70008CE30E949E0C8FEF8093200120E045E0BF
:102F800060E271E08BE20E94600C20E045E060E2CC
:102F900071E08AE20E94600C20E045E060E271E0AE
:102FA00080E30E94600C82EE0E94BC0C81EE0E94C5
:102FB000BC0C60E787E20E949E0C87E195E09F933E
:102FC0008F930E94B0168091A60180618093A60124
:102FD0001F92C7E3CF9383E095E09F938F930E9466
:102FE000B016C0934F0267E380E090E00E949F25F7
:102FF000C0914F020F900F900F900F900F900F9075
:10300000CF3FE1F18FEF8C0F8E3FF0F4C0931401AE
:1030100063E082E20E949E0C61E081E20E949E0CCD
:103020000E94AF0C6C2F80E090E00E949F251F92C1
:10303000CF938CED94E09F938F930E94B0160F90E6
:103040000F900F900F901AC01F921F928EEE94E077
:103050009F938F930E94B0160F900F900F900F9038
:1030600080E090E0892B21F08EE690E00E94000045
:103070008FEF80934F0280E091E002C088E091E002
:10308000CF910C94C90888EC94E09F938F930E9491
:10309000B0160F900F9080E090E0892B61F387E6E7
:1030A00090E00E940000E7CF8EEB94E09F938F9317
:1030B0000E94B016E6EAF1E08081877F8F7E8083F0
:1030C0001092A2011092A3011092A4011092A501E6
:1030D0000F900F9043E050E060E070E08FE492E0EA
:1030E0000C947725CF92DF92EF92FF920F931F936C
:1030F000CF93DF9300D000D000D0CDB7DEB78C01E6
:103100007B0169E771E0CE0101960E94270FD7018C
:1031100014964D915C9115976D917C91CE0101961D
:103120000E94C10E811104C0CE0101960E94EF0ED3
:103130004D815E8169817A8181E992E00E94C30CB0
:103140006EE871E081E992E00E949B16CE01019643
:103150000E94220FD801ED91FC91828193810E94FF
:103160005716D801ED91FC91C480D580C6010E940C
:1031700057160E946B0EDC01CB0188519C4FAF4F5C
:10318000BF4FF60182839383A483B58381E080934C
:10319000DA0189E080934B021092D8011092D90194
:1031A00061E971E085E892E00E949B169091D90157
:1031B00080914B02913208F046C02091DE0121112E
:1031C000FCCF22E02093DE0121E02093E0012FEFED
:1031D0002093DD011092020290930102A8EBB1E06E
:1031E00041EE51E0FA012E2F241B291718F42D91DE
:1031F0002193F9CF1092030290910302880F892B3B
:10320000809303028091DF01813061F41092DF012D
:10321000809103028093BB008091BC0083FDF8CFB6
:1032200085EC01C085EE8093BC008091DE01823088
:10323000E1F38091DD018F3F31F08091DD0180323B
:1032400011F08091DD011092D8011092D9011092F5
:10325000DA0188EB94E00E948D1BD801ED91FC917E
:10326000828193810E9448161A8219821C821B82D5
:103270001E821D82F701608171816115710531F037
:1032800044815581CE0101960E94010FBE016F5FFE
:103290007F4FD80118968D919C9119970E94141612
:1032A000CE0101960E94220F26960FB6F894DEBF3B
:1032B0000FBECDBFDF91CF911F910F91FF90EF9087
:1032C000DF90CF900895DC01ED91FD91BD0101905B
:1032D000F081E02D40E0099591E0811190E0892F87
:1032E00008956F927F928F92AF92BF92CF92DF92AA
:1032F000EF92FF920F93CF93DF9300D000D01F92F5
:10330000CDB7DEB73C0182E08D8340E064E2C301CB
:103310000E94351440E066E2C3010E94351446E283
:1033200068E4C3010E94351486E28C838D8182306B
:1033300020F140E86CE1C3010E94C01587E08B8357
:103340001F92812CCE0103965C0102966C010497BA
:103350007C0101E09E012C5F3F4F40E36CE0C30124
:103360000E94A9140F9081110BC08D81823039F415
:1033700081E09B81911104C008C084E001C081E01C
:1033800091E0823019F090E001C091E0892F0F9018
:103390000F900F900F900F90DF91CF910F91FF90B2
:1033A000EF90DF90CF90BF90AF908F907F906F9015
:1033B00008952F923F924F925F926F927F928F92D9
:1033C0009F92AF92BF92CF92DF92EF92FF920F93B4
:1033D0001F93CF93DF93CDB7DEB72D970FB6F89439
:1033E000DEBF0FBECDBF413508F00BC14C872B01AE
:1033F0003C0140E86CE10E94C01551E0523091F070
:103400005330F1F0513009F000C183E989832C85F4
:103410002223D9F081E0F2019081953008F480E018
:10342000912C18C085E98983FC85FF2381F081E018
:10343000F2019081983008F480E043E0942E0AC0B5
:1034400087E9898336E0932E04C0912C02C023E0E3
:10345000922E80E01C85F8EF9F9E100D112417FD21
:1034600010E0882321F098E89B8343E001C042E00C
:1034700021E0912F977009F420E0912F9595959573
:103480009595290F29F4882309F499C0185F97C0EE
:10349000811102C094E001C093E0291708F4922F33
:1034A00020E030E0692D70E0E42FE20FA1E0B0E011
:1034B000AC0FBD1FAE0FB11DF901E60FF71FE40DF4
:1034C000F51DE181EC932F5F3F4F291768F3DBCFA8
:1034D0008111E9C010320CF09AC010E220E72A8373
:1034E0009C818B8189279D8189279E8189278F8354
:1034F0009E01285F3F4F47E0BE016F5F7F4FC301D2
:103500005D870E945D145D858111CDC01B8633E00F
:103510003A87CE0107961C0109E08B84482D42951D
:10352000407F480D6AE1C3015D870E9435141F92F8
:103530009E01255F3F4F5901CE010A966C01710132
:103540002A50310940E36CE0C3010E94A9140F9096
:103550005D85823009F0BCCF6CE1C3010E94151477
:103560005D8585FD50C08F7109F480E2282F30E021
:10357000612F110F770B621773070CF046C0182FDD
:10358000C90101978770992725952595259531E0E3
:10359000320F21E0009709F420E0230FE1E0F0E092
:1035A000EC0FFD1FE20FF11D21E030E002C0220F01
:1035B000331F8A95E2F7C9019081892B80831032ED
:1035C0000CF08CCF912F97709B87212F25952595F7
:1035D000259582E0820F392FE0E18E9F300D112476
:1035E0003A8301E0911101C000E0080F22242394E6
:1035F000312C2C0E3D1E280E311C87E0821B8A8741
:103600008CCF86E050C082E04EC085E04CC08B81FC
:10361000883809F045C033E023E080E090E0692D70
:1036200070E0FC01E60FF71FE40DF51D432F480F76
:10363000A1E0B0E0AC0FBD1FA40FB11D4C914183C0
:103640000196821770F38A85833031F58B8581115D
:1036500023C09E012D5F3F4F41E0B101C3015D8753
:103660000E945D145D8581111EC09B81F1018181E5
:10367000981314C09C818281981310C0808182FFAE
:1036800002C05F5FBBCEF2018387852F880F580F82
:103690005F5F508380E007C081E005C087E003C022
:1036A00032E024E0BACF2D960FB6F894DEBF0FBEFD
:1036B000CDBFDF91CF911F910F91FF90EF90DF90E1
:1036C000CF90BF90AF909F908F907F906F905F90C2
:1036D0004F903F902F9008950F931F93CF93DF93B8
:1036E0008C01C0E0D0E0F801EC0FFD1F649166236F
:1036F00071F0E0919102F09192020190F081E02D41
:1037000081E992E00995892B11F02196ECCFCE0149
:10371000DF91CF911F910F910895CF93DF930E9476
:103720006C1BEC016EE871E081E992E00E949B164F
:103730008C0F9D1FDF91CF9108950F931F93CF930F
:10374000DF93EC018C8182958695877091F44B8193
:1037500046954695469550E0BE01695F7F4F82E5EC
:1037600092E00E94FD26EB81E695E695E695F0E075
:1037700077C0813031F48F814AE062E572E090E0F9
:1037800007C0823041F44AE062E572E08F8198859B
:103790000E94E41F68C0833041F44AE062E572E0B1
:1037A0008F8198850E943D205EC0843051F46F81E6
:1037B000788589859A852AE042E552E00E94EF1FCC
:1037C00052C0853051F46F81788589859A852AE0C9
:1037D00042E552E00E941B2046C0873071F42B85E1
:1037E000293008F028E06F81788589859A8502E57F
:1037F00012E042E00E94521E36C08630A1F520E061
:10380000EB81E695E695E6952E1738F5E22FF0E088
:10381000AF01440F551FDA01AE5ABD4FEC0FFD1F2B
:103820008781082E000C990B34E0959587953A9581
:10383000E1F78F708A3010F4805D01C0895C8C9351
:10384000DA01AD5ABD4F87818F708A3010F4805DE8
:1038500001C0895C8C932F5FD3CFF0E0EE0FFF1F88
:10386000EE5AFD4F108282E592E0DF91CF911F91D9
:103870000F910895FC0180914F0281839481907F84
:103880009960948380914E0280FF03C0CF010C9415
:10389000450588E796E09F938F930E94B0160F909E
:1038A0000F9080E0089590E0FC01EC59F94F2491CD
:1038B000FC01E05BF94F8491882399F090E0880F38
:1038C000991FFC01EA5BF94FA591B491FC01E45CFE
:1038D000F94F859194918FB7F894EC91E22BEC938A
:1038E0008FBF0895CF92DF92EF92FF920F931F93B5
:1038F000CF93DF9300D0CDB7DEB78C01F62E83E5F2
:1039000090E049835A830E945D0C60E0F80186854F
:103910000E94E51382E10E94560C4981E42EC42ED8
:103920005A81D52E8C2D8E198F1530F4F601819188
:103930006F010E94560CF6CF61E0F80186850E9467
:10394000E5130F900F90DF91CF911F910F91FF9092
:10395000EF90DF90CF900C94550CEEE2F3E0909155
:103960004F02918382836683258347708481807EA2
:10397000482B4483CF010895CF92DF92EF92FF92BC
:10398000CF93DF93D82F0E946B0E6B017C0181E0F7
:10399000D11180E080935403C0E00E946B0EAB0114
:1039A000BC014C195D096E097F09403D5740610516
:1039B000710580F4C1110EC0A8950E945405909124
:1039C00053039770933049F7C1E0809154038D13EE
:1039D000E3CFE3CF8C2FDF91CF91FF90EF90DF907B
:1039E000CF9008958430D9F050F4813091F030F1C7
:1039F000823091F08330F9F48CEE95E008958630B2
:103A0000A1F080F08730A1F08F3FA9F483E595E025
:103A100008958BE196E0089586E096E0089580EDA4
:103A200095E0089581EA95E008958FE895E008957E
:103A300085E795E0089585E495E0089583E396E0B1
:103A40000895789484B5826084BD84B5816084BD16
:103A500085B5826085BD85B5816085BD80916E002C
:103A6000816080936E00109281008091810082605D
:103A7000809381008091810081608093810080919A
:103A800080008160809380008091B1008460809389
:103A9000B1008091B00081608093B00080917A0085
:103AA000846080937A0080917A00826080937A00AB
:103AB00080917A00816080937A0080917A0080689A
:103AC00080937A001092C100A8950E94BE09E091EF
:103AD000A102F091A20282E08083E0919D02F09128
:103AE0009E021082E0919F02F091A00280E180830B
:103AF0001092A902E091A502F091A60286E08083CF
:103B0000E091A302F091A402808180618083E09122
:103B1000A302F091A402808188608083E091A302D7
:103B2000F091A402808180688083E091A302F091EB
:103B3000A40280818F7D808380E094E09F938F93A7
:103B40000E94B01680914E028D7F80934E020F909E
:103B50000F9083EF93E09F938F930E94B0160E9483
:103B6000F4090F900F9041E050E063E071E08DE4C4
:103B700092E00E94772560E081E090E00E949F251E
:103B80008091A7018F788093A70110929D011092D8
:103B90009C0185E191E00E94C90881EA9AE0909336
:103BA000AA018093A9011F921F921F921F928EEB70
:103BB00093E09F938F930E94B0160E946B0E0F901C
:103BC0000F900F900F900F900F900E946B0E0E941D
:103BD0005405A8958091A60182FFF7CF86EE93E069
:103BE0009F938F930E94B0160E94FD0A0F900F9032
:103BF0008091A60182FB882780F91F928F938EEC1B
:103C000093E09F938F930E94B016A8950F900F900A
:103C10000F900F90A8950E9454050E943C0F0E949F
:103C2000C30DF8CFE5E8F2E01382128288EE93E04C
:103C3000A0E0B0E084839583A683B78329E331E0D5
:103C400031832083E1E9F2E0138212828483958339
:103C5000A683B7838BE491E09183808385EC90E029
:103C60009587848784EC90E09787868780EC90E046
:103C7000918B808B81EC90E0938B828B82EC90E037
:103C8000958B848B86EC90E0978B868B118E128EB1
:103C9000138E148E8FE493E00E94E80A8EE293E084
:103CA0000C94E80AEF920F931F93CF93DF93E801F0
:103CB00047FD02C034E001C034E1E42F440FFF0BA4
:103CC000F7FF03C0F195E195F109E32E022F2E2FA6
:103CD000AE010E945522CE01DF91CF911F910F912D
:103CE000EF900895CF93DF938230910510F482E036
:103CF00090E0E0917203F091730320E030E0C0E0C7
:103D0000D0E0309711F14081518148175907C0F038
:103D10004817590761F482819381209719F09B839A
:103D20008A832BC0909373038093720326C021155E
:103D3000310519F04217530718F49A01BE01DF014B
:103D4000EF010280F381E02DDCCF2115310509F16F
:103D5000281B390B2430310590F412968D919C91DB
:103D600013976115710521F0FB019383828304C0D1
:103D70009093730380937203FD01329644C0FD015A
:103D8000E20FF31F81939193225031092D933C93BD
:103D90003AC02091700330917103232B41F420919C
:103DA00027013091280130937103209370032091F3
:103DB0002501309126012115310541F42DB73EB77B
:103DC0004091290150912A01241B350BE091700389
:103DD000F0917103E217F307A0F42E1B3F0B281795
:103DE000390778F0AC014E5F5F4F2417350748F074
:103DF0004E0F5F1F50937103409370038193919313
:103E000002C0E0E0F0E0CF01DF91CF9108950F9381
:103E10001F93CF93DF93009709F48CC0FC01329776
:103E20001382128200917203109173030115110520
:103E300081F420813181820F931F20917003309192
:103E400071032817390779F5F0937103E093700334
:103E500071C0D80140E050E0AE17BF0750F4129691
:103E60002D913C911397AD012115310509F1D9012F
:103E7000F3CF9D01DA013383228360817181860F44
:103E8000971F8217930769F4EC0128813981260F67
:103E9000371F2E5F3F4F318320838A819B8193831D
:103EA0008283452B29F4F0937303E093720342C09D
:103EB0001396FC93EE931297ED01499159919E014F
:103EC000240F351FE217F30771F480819181840F6D
:103ED000951F029611969C938E93828193811396DF
:103EE0009C938E931297E0E0F0E0D80112968D91AA
:103EF0009C911397009719F0F8018C01F6CF8D91E2
:103F00009C9198012E5F3F4F820F931F2091700369
:103F1000309171032817390769F4309729F410920A
:103F200073031092720302C0138212821093710302
:103F300000937003DF91CF911F910F910895FC01C1
:103F400088279927E89421912032E9F3293010F04D
:103F50002E30C8F32B3241F02D3239F4689404C06E
:103F60000E941320820F911D219120532A30C0F30B
:103F70001EF4909581959F4F08951F93FC019927FA
:103F80008827BC01E89411911032E9F3193010F040
:103F90001E30C8F31B3251F01D3249F4689406C03C
:103FA0000E94FE1F610F711D811D911D1191105303
:103FB0001A30B0F33EF490958095709561957F4FDF
:103FC0008F4F9F4F1F910895BB274A3031F499239B
:103FD00022F4BDE2909581959F4F0C943E20BB2723
:103FE0002A3051F4992342F4BDE290958095709562
:103FF00061957F4F8F4F9F4F0C941C20592F482F56
:10400000372F262F660F771F881F991F660F771F80
:10401000881F991F620F731F841F951F660F771FDC
:10402000881F991F08957AE0979F902D879F802D74
:10403000910D11240895BB27FA01A62F621771056F
:1040400081059105330B30FB66F0AA27660F771FB9
:10405000881F991FAA1FA21710F0A21B6395385042
:10406000A9F7A05DAA3308F0A95DA19336F7B111B5
:10407000B1931082CA010C94D124BB27FB015527B0
:10408000AA27880F991FAA1FA41710F0A41B8395B5
:104090005051B9F7A05DAA3308F0A95DA19300972C
:1040A00079F7B111B1931192CB010C94D124AEE008
:1040B000B0E0EDE5F0E20C94CD258C01CA014EE0B4
:1040C0004C831A83098377FF02C060E070E8FB012C
:1040D0003197FE83ED83A901BC01CE0101960E94B8
:1040E00083204D815E8157FD0AC02F81388542179C
:1040F00053070CF49A01F801E20FF31F10822E9679
:10410000E4E00C94E925ACE0B0E0E9E8F0E20C94DE
:10411000BF257C016B018A01FC0117821682838115
:1041200081FFBDC1CE0101964C01F7019381F601DB
:1041300093FD859193FF81916F01882309F4ABC1B1
:10414000853239F493FD859193FF81916F0185321A
:1041500029F4B70190E00E94E124E7CF512C312CE3
:1041600020E02032A0F48B3269F030F4803259F034
:10417000833269F420612CC08D3239F0803339F4F8
:10418000216026C02260246023C0286021C027FD52
:1041900027C030ED380F3A3078F426FF06C0FAE039
:1041A0005F9E300D1124532E13C08AE0389E300DCF
:1041B0001124332E20620CC08E3221F426FD6BC1F7
:1041C000206406C08C3611F4206802C0883641F4A1
:1041D000F60193FD859193FF81916F018111C1CF0C
:1041E000982F9F7D9554933028F40C5F1F4FFFE369
:1041F000F9830DC0833631F0833771F0833509F0D0
:104200005BC022C0F801808189830E5F1F4F442468
:104210004394512C540115C03801F2E06F0E711C0B
:10422000F801A080B18026FF03C0652D70E002C0B8
:104230006FEF7FEFC5012C870E94C6242C018301FC
:104240002C852F77222E17C03801F2E06F0E711CDB
:10425000F801A080B18026FF03C0652D70E002C088
:104260006FEF7FEFC5012C870E94BB242C012C85AA
:104270002068222E830123FC1BC0832D90E048166A
:104280005906B0F4B70180E290E00E94E1243A942C
:10429000F4CFF50127FC859127FE81915F01B701DD
:1042A00090E00E94E12431103A94F1E04F1A510855
:1042B0004114510471F7E5C0843611F0893639F59F
:1042C000F80127FF07C060817181828193810C5FB3
:1042D0001F4F08C060817181072E000C880B990B5D
:1042E0000E5F1F4F2F76722E97FF09C09095809515
:1042F000709561957F4F8F4F9F4F2068722E2AE0F7
:1043000030E0A4010E941925A82EA81844C08537C2
:1043100029F42F7EB22E2AE030E025C0F22FF97F5B
:10432000BF2E8F36C1F018F4883579F0B4C08037CD
:1043300019F0883721F0AFC02F2F2061B22EB4FEC4
:104340000DC08B2D8460B82E09C024FF0AC09F2F9A
:104350009660B92E06C028E030E005C020E130E0CC
:1043600002C020E132E0F801B7FE07C06081718130
:10437000828193810C5F1F4F06C06081718180E054
:1043800090E00E5F1F4FA4010E941925A82EA818C7
:10439000FB2DFF777F2E76FE0BC0372D3E7FA514B9
:1043A00050F474FE0AC072FC08C0372D3E7E05C072
:1043B000BA2C372D03C0BA2C01C0B52C34FF0DC068
:1043C000FE01EA0DF11D8081803311F4397E09C0B0
:1043D00032FF06C0B394B39404C0832F867809F0EB
:1043E000B39433FD13C030FF06C05A2CB31418F435
:1043F000530C5B18B32CB31468F4B70180E290E05F
:104400003C870E94E124B3943C85F5CFB31410F4AB
:104410003B1801C0312C34FF12C0B70180E390E09B
:104420003C870E94E1243C8532FF17C031FD03C068
:1044300088E790E002C088E590E0B7010CC0832FC8
:10444000867859F031FF02C08BE201C080E237FD6F
:104450008DE2B70190E00E94E124A51438F4B70181
:1044600080E390E00E94E1245A94F7CFAA94F401EB
:10447000EA0DF11D8081B70190E00E94E124A110B6
:10448000F5CF332009F451CEB70180E290E00E94CD
:10449000E1243A94F6CFF7018681978102C08FEF2D
:1044A0009FEF2C96E2E10C94DB254F925F926F9286
:1044B0007F929F92AF92BF92CF92DF92EF92FF9244
:1044C0000F931F93CF93DF93CDB7DEB729970FB626
:1044D000F894DEBF0FBECDBF6A01122FB02E2BE3C2
:1044E000201720F0FF24F394F00E02C0BCE3FB2E53
:1044F0000F2D27E0AE014F5F5F4F0E94E323AC0119
:104500008981982F9970913031F0E1FC06C0E0FE6E
:1045100006C090E205C09DE203C09BE201C090E0AE
:10452000EE2DE07183FF3CC0911102C083E001C019
:1045300084E0811718F4212F281B01C020E0E1112D
:104540000BC0F601822F30E2882319F0319381509D
:10455000FBCFC20ED11C20E0992329F0D6019C93F9
:10456000F60131966F01C6010396E2FE0AC03EE4F1
:10457000D6013C9341E411964C93119712963C93CB
:1045800006C03EE6F601308341E641833283FC01FA
:10459000322F40E2332309F442C041933150FACF25
:1045A00082FF44C0911102C083E001C084E0811702
:1045B00018F4212F281B01C020E0E1110BC0F601E7
:1045C000822F30E2882319F031938150FBCFC20E45
:1045D000D11C20E0992329F0D6019C93F601319655
:1045E0006F01C6010396E2FE0BC039E4D6013C938D
:1045F0003EE411963C93119736E412963C9307C023
:1046000039E6F60130833EE6318336E63283FC013B
:10461000322F40E2332319F041933150FBCFFC019C
:10462000E20FF11D10828EEF9FEFB7C0F1E0911104
:1046300001C0F0E06F2F70E01416150624F49A0103
:104640002F5F3F4F02C021E030E0260F371FBB2015
:1046500029F06B2D70E06F5F7F4F02C060E070E06B
:10466000260F371F612F70E0261737071CF4121B27
:10467000212F01C020E03E2D387159F4D601322F90
:1046800060E2332319F06D933150FBCFC20ED11C81
:1046900020E0FF2331F0D6019C93B6016F5F7F4F7E
:1046A0006B01E1110BC0F601922F30E3992319F051
:1046B00031939150FBCFC20ED11C20E09F2D940F5F
:1046C0003A81782F7071A72E84FF03C0313309F42B
:1046D0009150191624F4993018F098E001C091E037
:1046E000E42F852F57FF02C0E0E080E06E2F782F87
:1046F000E0E0F0E0AEE29A2E3A01691A71082A0170
:10470000461A570A0B2D10E01195019511096F3FBC
:104710008FEF780729F4D6019C92C60101966C01AF
:104720004617570784F0661677066CF47F01E40C91
:10473000F51CA1E0B0E0AC0FBD1FEA0EFB1ED701D7
:104740001196BC9002C090E3B92E61507109319668
:10475000C60101967C016017710724F0D601BC9256
:104760006C01D5CF6417750741F4363320F4353327
:1047700021F4A11002C081E3B82EF601B082F70146
:10478000822F90E2882319F091938150FBCFF7019B
:10479000E20FF11D108280E090E029960FB6F894A8
:1047A000DEBF0FBECDBFDF91CF911F910F91FF9064
:1047B000EF90DF90CF90BF90AF909F907F906F90E1
:1047C0005F904F900895283008F027E03327DA01F2
:1047D000990F311D87FD916000966105710539F4CF
:1047E00032602E5F3D9330E32A95E1F708959F3FB5
:1047F00030F080387105610509F03C5F3C5F3D9306
:10480000913008F08068911DDF93CF931F930F9331
:10481000FF92EF92192F987F9695E92F969596958E
:10482000E90FFF27EE53FF4F99273327EE24FF248C
:10483000A701E70105900894079428F4360FE71EB6
:10484000F81E491F511D660F771F881F991F069478
:10485000A1F70590079428F4E70EF81E491F561F8C
:10486000C11D770F881F991F661F0694A1F7059039
:10487000079428F4F80E491F561FC71FD11D880F33
:10488000991F661F771F0694A1F70590079420F4DF
:10489000490F561FC71FD81F990F661F771F881F04
:1048A0000694A9F784911095177041F0D695C79595
:1048B00057954795F794E7941A95C1F7E8E6F0E025
:1048C00068941590159135916591959105907FE2C9
:1048D0007395E118F10A430B560BC90BD009C0F7C9
:1048E000E10CF11E431F561FC91FD01D7EF470330B
:1048F00011F48A95E6CFE894015030F0080F0AF4DD
:104900000027021708F4202F2395022F7A3328F06E
:1049100079E37D932A95E9F710C07D932A9589F66E
:10492000069497956795379517951794E118F10AAE
:10493000430B560BC90BD00998F023957E917395C4
:104940007A3308F070E37C932013B8F77E9170619E
:104950007D9330F0839571E37D9370E32A95E1F7C1
:104960001124EF90FF900F911F91CF91DF91992724
:1049700087FD90950895FC010590615070400110ED
:10498000D8F7809590958E0F9F1F0895FC01615078
:10499000704001900110D8F7809590958E0F9F1F61
:1049A0000895DC01FC01672F71917723E1F73297BD
:1049B00004C07C916D9370836291AE17BF07C8F3FA
:1049C00008950F931F93CF93DF93FB01238121FD64
:1049D00003C08FEF9FEF28C022FF16C0468157818A
:1049E000248135814217530744F4A081B1819D0190
:1049F0002F5F3F4F318320838C93268137812F5F38
:104A00003F4F3783268310C0EB01092F182F0084F6
:104A1000F185E02D0995892BE1F68E819F81019624
:104A20009F838E83812F902FDF91CF911F910F91C4
:104A30000895FA01AA27283051F1203181F1E89434
:104A40006F936E7F6E5F7F4F8F4F9F4FAF4FB1E081
:104A50003ED0B4E03CD0670F781F891F9A1FA11D7C
:104A6000680F791F8A1F911DA11D6A0F711D811D7D
:104A7000911DA11D20D009F468943F912AE0269F42
:104A800011243019305D3193DEF6CF010895462FA1
:104A90004770405D4193B3E00FD0C9F7F6CF462F82
:104AA0004F70405D4A3318F0495D31FD40524193EB
:104AB00002D0A9F7EACFB4E0A695979587957795A8
:104AC0006795BA95C9F700976105710508959B012F
:104AD000AC010A2E06945795479537952795BA95B8
:104AE000C9F7620F731F841F951FA01D0895DC0175
:104AF000CB01FC01F999FECF06C0F2BDE1BDF89AE9
:104B0000319600B40D9241505040B8F70895F9998C
:104B1000FECF92BD81BDF89A992780B50895DC013A
:104B2000A40FB51F4150504048F0CB01840F951F92
:104B30002E910E94A02541505040D0F70895262F75
:104B4000F999FECF92BD81BDF89A019700B4021683
:104B500039F01FBA20BD0FB6F894FA9AF99A0FBE31
:104B60000895262FF999FECF1FBA92BD81BD20BDB1
:104B70000FB6F894FA9AF99A0FBE019608952F92FB
:104B80003F924F925F926F927F928F929F92AF92DD
:104B9000BF92CF92DF92EF92FF920F931F93CF932A
:104BA000DF93CDB7DEB7CA1BDB0B0FB6F894DEBFC1
:104BB0000FBECDBF09942A88398848885F846E84E7
:104BC0007D848C849B84AA84B984C884DF80EE8031
:104BD000FD800C811B81AA81B981CE0FD11D0FB63A
:104BE000F894DEBF0FBECDBFED010895A1E21A2EED
:104BF000AA1BBB1BFD010DC0AA1FBB1FEE1FFF1F81
:104C0000A217B307E407F50720F0A21BB30BE40BD0
:104C1000F50B661F771F881F991F1A9469F7609517
:104C20007095809590959B01AC01BD01CF010895D1
:104C3000EE0FFF1F0590F491E02D0994A0E0B0E085
:104C4000E4E2F6E20C94C325EC01009721F4CB01D9
:104C50000E94721EB8C0FC01E60FF71F9C01225093
:104C60003109E217F30708F4ACC0D9010D911C918A
:104C7000119706171707B0F00530110508F49FC00B
:104C8000C80104978617970708F499C002501109C4
:104C9000061B170B019311936D937C93CF010E9418
:104CA000071F8DC05B01A01AB10A4C01800E911E36
:104CB000A0917203B091730340E050E0E12CF12C1D
:104CC000109709F44AC0A815B905D1F56D907C90EC
:104CD0001197630182E0C80ED11CCA14DB0480F175
:104CE000A3014A195B096A0182E0C80ED11C129621
:104CF000BC9012971396AC91B5E0CB16D10440F05E
:104D0000B282A38351834083D9016D937C930AC0FF
:104D10000E5F1F4FC301800F911FF90191838083A4
:104D2000EB2DFA2FE114F10431F0D7011396FC9327
:104D3000EE93129744C0F0937303E09372033FC065
:104D40008D919C9111974817590708F4AC017D018A
:104D500012960D90BC91A02DB3CF809170039091CD
:104D6000710388159905E1F446175707C8F4809137
:104D7000250190912601009741F48DB79EB740918F
:104D8000290150912A01841B950BE817F907C8F4F3
:104D9000F0937103E0937003F901718360830FC096
:104DA000CB010E94721E7C01009759F0A801BE0140
:104DB0000E94ED26CE010E94071FC70104C0CE014C
:104DC00002C080E090E0CDB7DEB7EEE00C94DF25C6
:104DD00081E090E0F8940C940C27FB01DC0102C008
:104DE00001900D9241505040D8F70895FB01DC012D
:104DF00001900D920020E1F70895FB01DC01415084
:104E0000504048F001900D920020C9F701C01D925A
:0C4E100041505040E0F70895F894FFCFA7
:104E1C00AA04F5081C0578091217B209E6041D0945
:104E2C0086037303FF54184317C20CC20CFFFFFF19
:104E3C0000FCE1A8A800007403200000000000D9C9
:104E4C001971196319000000005F122F12EF0C0981
:104E5C0012271218120A12000000005A0DC30CF28D
:104E6C000CA10D230D010D150D4F4B004E41434B65
:104E7C00002100322E312E31002030004275726735
:104E8C0065727327205A6F6F0050617320676573CA
:104E9C0063616E64206D65742069643A20000D0AAC
:0C4EAC0000706C6179617564696F000032
:00000001FF
