:100000000C9483000C94B4000C94B4000C94B400D1
:100010000C94B4000C94B4000C94B4000C94B40090
:100020000C94B4000C94B4000C94B4000C94B40080
:100030000C94B4000C94B4000C94B4000C94B40070
:100040000C94B4000C94B4000C94B4000C94B40060
:100050000C94B4000C94B4000C94B4000C94F10112
:100060000C94B4000C9465020C943B020C94B40004
:100070000C94B4000C94B4000C94B4000C94B40030
:100080000C94B4000C94B4000C94B4000C94B40020
:100090000C94B4000C94B4000C94B4000C94B40010
:1000A0000C94B4000C94B4000C94B4000C94B40000
:1000B0000C94B4000C94B4000C94B4000C94B400F0
:1000C0000C94B4000C94B4000C94B4000C94B400E0
:1000D0000C94B4000C94B4000C94B4000C94B400D0
:1000E0000C94B4000C9494010C94E5000C94080159
:1000F0000C94F4000C9416010C94B6000C944D0171
:100100000C948A038A0311241FBECFEFD1E2DEBF15
:10011000CDBF00E00CBF12E0A0E0B2E0ECE8F7E0F9
:1001200000E00BBF02C007900D92AC31B107D9F7C8
:1001300022E0ACE1B2E001C01D92A63CB207E1F7BB
:1001400010E0C3E8D0E000E006C021970109802F4D
:10015000FE010E94B703C238D10780E00807A9F763
:100160000E949B020C94C4030C940000CF92DF9277
:10017000EF92FF920F931F93CF93DF936C017A015D
:100180008B01C0E0D0E0CE15DF0589F0D8016D917C
:100190008D01D601ED91FC910190F081E02DC60119
:1001A0001995892B11F47E0102C02196ECCFC7016D
:1001B000DF91CF911F910F91FF90EF90DF90CF9043
:1001C0000895089580E090E00895FC01538D448DDA
:1001D000252F30E0842F90E0821B930B541710F0F2
:1001E000CF96089501970895FC01918D828D9817FF
:1001F00061F0828DDF01A80FB11D5D968C91928D0B
:100200009F5F9F73928F90E008958FEF9FEF089507
:10021000FC01918D828D981731F0828DE80FF11DD0
:10022000858D90E008958FEF9FEF0895FC01918DEB
:10023000228D892F90E0805C9F4F821B91098F73E4
:100240009927089580E292E00E94160121E0892B0F
:1002500009F420E0822F0895FC01848DDF01A80FAE
:10026000B11DA35ABF4F2C91848D90E001968F73DE
:100270009927848FA689B7892C93A089B1898C91FD
:1002800080648C93938D848D981306C00288F389C3
:10029000E02D80818F7D80830895EF92FF920F93F0
:1002A0001F93CF93DF93EC0181E0888F9B8D8C8D22
:1002B000981305C0E889F989808185FD24C0F62E50
:1002C0000B8D10E00F5F1F4F0F731127E02E8C8DE9
:1002D000E8120CC00FB607FCFACFE889F9898081D3
:1002E00085FFF5CFCE010E942C01F1CF8B8DFE0151
:1002F000E80FF11DE35AFF4FF0820B8FEA89FB896B
:100300008081806207C0EE89FF896083E889F9896E
:1003100080818064808381E090E0DF91CF911F91A4
:100320000F91FF90EF900895CF93DF93EC01888DAC
:100330008823C9F0EA89FB89808185FD05C0A889E9
:10034000B9898C9186FD0FC00FB607FCF5CF80816F
:1003500085FFF2CFA889B9898C9185FFEDCFCE01B9
:100360000E942C01E7CFDF91CF91089580E090E0CB
:10037000892B21F00E942201811125C080E090E0AC
:10038000892B41F080E090E0892B21F00E94000051
:1003900081111CC080E090E0892B41F080E090E06A
:1003A000892B21F00E940000811113C080E090E0B1
:1003B000892BA1F080E090E0892B81F00E94000061
:1003C00081110AC008950E940000D8CF0E94000049
:1003D000E1CF0E940000EACF0C94000008950E9433
:1003E000BF031F920F920FB60F9211242F933F93CA
:1003F0008F939F93AF93BF938091C2029091C3025A
:10040000A091C402B091C5023091C10223E0230F34
:100410002D3720F40196A11DB11D05C026E8230F3C
:100420000296A11DB11D2093C1028093C202909338
:10043000C302A093C402B093C5028091BD02909103
:10044000BE02A091BF02B091C0020196A11DB11DD4
:100450008093BD029093BE02A093BF02B093C002EE
:10046000BF91AF919F918F913F912F910F900FBEB0
:100470000F901F9018951F920F920FB60F92112494
:100480000BB60F922F933F934F935F936F937F938E
:100490008F939F93AF93BF93EF93FF9380E292E08C
:1004A0000E942C01FF91EF91BF91AF919F918F918D
:1004B0007F916F915F914F913F912F910F900BBE64
:1004C0000F900FBE0F901F9018951F920F920FB6AE
:1004D0000F9211240BB60F922F938F939F93EF934C
:1004E000FF93E0913002F09131028081E091360279
:1004F000F091370282FD12C09081809139028F5FA6
:100500008F7320913A02821751F0E0913902F0E0A6
:10051000E05EFD4F958F8093390201C08081FF918D
:10052000EF919F918F912F910F900BBE0F900FBE67
:100530000F901F901895789484B5826084BD84B51F
:10054000816084BD85B5826085BD85B5816085BDCE
:1005500080916E00816080936E0010928100809186
:10056000810082608093810080918100816080930E
:100570008100809180008160809380008091B10033
:1005800084608093B1008091B00081608093B0005E
:1005900080919100826080939100809191008160B0
:1005A0008093910080919000816080939000809171
:1005B000A10082608093A1008091A100816080935E
:1005C000A1008091A00081608093A0008091210112
:1005D00082608093210180912101816080932101BB
:1005E0008091200181608093200180917A00846055
:1005F00080937A0080917A00826080937A00809163
:100600007A00816080937A0080917A00806880937C
:100610007A001092C100E0913002F091310282E044
:100620008083E0912C02F0912D021082E0912E0245
:10063000F0912F028FEC808310923802E091340207
:10064000F091350286E08083E0913202F09133022E
:10065000808180618083E0913202F0913302808159
:1006600088608083E0913202F0913302808180685B
:100670008083E0913202F091330280818F7D80830C
:1006800080E292E00E941601892B49F080E292E01C
:100690000E94F400682F80E292E00E944D012FB783
:1006A000F8948091C2029091C302A091C402B091CB
:1006B000C5022FBF40911C0250911D0260911E0285
:1006C00070911F028C019D01041B150B260B370B2B
:1006D000B901A801493B5B4061057105C0F08093F9
:1006E0001C0290931D02A0931E02B0931F0245E0CE
:1006F00050E062E172E080E292E00E94B60042E0E7
:1007000050E068E172E080E292E00E94B6000E9450
:10071000B601B6CFE0E2F2E01382128288EE93E0F7
:10072000A0E0B0E084839583A683B78384E092E061
:100730009183808385EC90E09587848784EC90E0BA
:100740009787868780EC90E0918B808B81EC90E09E
:10075000938B828B82EC90E0958B848B86EC90E07F
:10076000978B868B118E128E138E148E0895EE0F3A
:10077000FF1F881F8BBF0790F691E02D199481E031
:0C07800090E0F8940C94C403F894FFCFB0
:10078C00000000004D01B600E50094011601F400D4
:0C079C0008017465737432000D0A00003F
:00000001FF
